{
  "abi": [
    {
      "type": "constructor",
      "inputs": [
        {
          "name": "newOwner",
          "type": "address",
          "internalType": "address"
        },
        {
          "name": "oldSettings",
          "type": "address",
          "internalType": "address"
        }
      ],
      "stateMutability": "nonpayable"
    },
    {
      "type": "function",
      "name": "DEFAULT_ADMIN_ROLE",
      "inputs": [],
      "outputs": [
        {
          "name": "",
          "type": "bytes32",
          "internalType": "bytes32"
        }
      ],
      "stateMutability": "view"
    },
    {
      "type": "function",
      "name": "TOKEN_MARK_ROLE",
      "inputs": [],
      "outputs": [
        {
          "name": "",
          "type": "bytes32",
          "internalType": "bytes32"
        }
      ],
      "stateMutability": "view"
    },
    {
      "type": "function",
      "name": "calculateMarketplaceFee",
      "inputs": [
        {
          "name": "_amount",
          "type": "uint256",
          "internalType": "uint256"
        }
      ],
      "outputs": [
        {
          "name": "",
          "type": "uint256",
          "internalType": "uint256"
        }
      ],
      "stateMutability": "view"
    },
    {
      "type": "function",
      "name": "calculateMarketplacePayoutFee",
      "inputs": [
        {
          "name": "_amount",
          "type": "uint256",
          "internalType": "uint256"
        }
      ],
      "outputs": [
        {
          "name": "",
          "type": "uint256",
          "internalType": "uint256"
        }
      ],
      "stateMutability": "view"
    },
    {
      "type": "function",
      "name": "calculatePrimarySaleFee",
      "inputs": [
        {
          "name": "",
          "type": "address",
          "internalType": "address"
        },
        {
          "name": "_amount",
          "type": "uint256",
          "internalType": "uint256"
        }
      ],
      "outputs": [
        {
          "name": "",
          "type": "uint256",
          "internalType": "uint256"
        }
      ],
      "stateMutability": "view"
    },
    {
      "type": "function",
      "name": "calculateStakingFee",
      "inputs": [
        {
          "name": "_amount",
          "type": "uint256",
          "internalType": "uint256"
        }
      ],
      "outputs": [
        {
          "name": "",
          "type": "uint256",
          "internalType": "uint256"
        }
      ],
      "stateMutability": "view"
    },
    {
      "type": "function",
      "name": "getERC721ContractPrimarySaleFeePercentage",
      "inputs": [
        {
          "name": "",
          "type": "address",
          "internalType": "address"
        }
      ],
      "outputs": [
        {
          "name": "",
          "type": "uint8",
          "internalType": "uint8"
        }
      ],
      "stateMutability": "view"
    },
    {
      "type": "function",
      "name": "getMarketplaceFeePercentage",
      "inputs": [],
      "outputs": [
        {
          "name": "",
          "type": "uint8",
          "internalType": "uint8"
        }
      ],
      "stateMutability": "view"
    },
    {
      "type": "function",
      "name": "getMarketplaceMaxValue",
      "inputs": [],
      "outputs": [
        {
          "name": "",
          "type": "uint256",
          "internalType": "uint256"
        }
      ],
      "stateMutability": "view"
    },
    {
      "type": "function",
      "name": "getMarketplaceMinValue",
      "inputs": [],
      "outputs": [
        {
          "name": "",
          "type": "uint256",
          "internalType": "uint256"
        }
      ],
      "stateMutability": "view"
    },
    {
      "type": "function",
      "name": "getRoleAdmin",
      "inputs": [
        {
          "name": "role",
          "type": "bytes32",
          "internalType": "bytes32"
        }
      ],
      "outputs": [
        {
          "name": "",
          "type": "bytes32",
          "internalType": "bytes32"
        }
      ],
      "stateMutability": "view"
    },
    {
      "type": "function",
      "name": "getStakingFeePercentage",
      "inputs": [],
      "outputs": [
        {
          "name": "",
          "type": "uint8",
          "internalType": "uint8"
        }
      ],
      "stateMutability": "view"
    },
    {
      "type": "function",
      "name": "grantMarketplaceAccess",
      "inputs": [
        {
          "name": "_account",
          "type": "address",
          "internalType": "address"
        }
      ],
      "outputs": [],
      "stateMutability": "nonpayable"
    },
    {
      "type": "function",
      "name": "grantRole",
      "inputs": [
        {
          "name": "role",
          "type": "bytes32",
          "internalType": "bytes32"
        },
        {
          "name": "account",
          "type": "address",
          "internalType": "address"
        }
      ],
      "outputs": [],
      "stateMutability": "nonpayable"
    },
    {
      "type": "function",
      "name": "hasERC721TokenSold",
      "inputs": [
        {
          "name": "_contractAddress",
          "type": "address",
          "internalType": "address"
        },
        {
          "name": "_tokenId",
          "type": "uint256",
          "internalType": "uint256"
        }
      ],
      "outputs": [
        {
          "name": "",
          "type": "bool",
          "internalType": "bool"
        }
      ],
      "stateMutability": "view"
    },
    {
      "type": "function",
      "name": "hasRole",
      "inputs": [
        {
          "name": "role",
          "type": "bytes32",
          "internalType": "bytes32"
        },
        {
          "name": "account",
          "type": "address",
          "internalType": "address"
        }
      ],
      "outputs": [
        {
          "name": "",
          "type": "bool",
          "internalType": "bool"
        }
      ],
      "stateMutability": "view"
    },
    {
      "type": "function",
      "name": "markContractAsSold",
      "inputs": [
        {
          "name": "_contractAddress",
          "type": "address",
          "internalType": "address"
        }
      ],
      "outputs": [
        {
          "name": "",
          "type": "bool",
          "internalType": "bool"
        }
      ],
      "stateMutability": "nonpayable"
    },
    {
      "type": "function",
      "name": "markERC721Token",
      "inputs": [
        {
          "name": "_contractAddress",
          "type": "address",
          "internalType": "address"
        },
        {
          "name": "_tokenId",
          "type": "uint256",
          "internalType": "uint256"
        },
        {
          "name": "_hasSold",
          "type": "bool",
          "internalType": "bool"
        }
      ],
      "outputs": [],
      "stateMutability": "nonpayable"
    },
    {
      "type": "function",
      "name": "markTokensAsSold",
      "inputs": [
        {
          "name": "_originContract",
          "type": "address",
          "internalType": "address"
        },
        {
          "name": "_tokenIds",
          "type": "uint256[]",
          "internalType": "uint256[]"
        }
      ],
      "outputs": [],
      "stateMutability": "nonpayable"
    },
    {
      "type": "function",
      "name": "owner",
      "inputs": [],
      "outputs": [
        {
          "name": "",
          "type": "address",
          "internalType": "address"
        }
      ],
      "stateMutability": "view"
    },
    {
      "type": "function",
      "name": "renounceOwnership",
      "inputs": [],
      "outputs": [],
      "stateMutability": "nonpayable"
    },
    {
      "type": "function",
      "name": "renounceRole",
      "inputs": [
        {
          "name": "role",
          "type": "bytes32",
          "internalType": "bytes32"
        },
        {
          "name": "account",
          "type": "address",
          "internalType": "address"
        }
      ],
      "outputs": [],
      "stateMutability": "nonpayable"
    },
    {
      "type": "function",
      "name": "revokeRole",
      "inputs": [
        {
          "name": "role",
          "type": "bytes32",
          "internalType": "bytes32"
        },
        {
          "name": "account",
          "type": "address",
          "internalType": "address"
        }
      ],
      "outputs": [],
      "stateMutability": "nonpayable"
    },
    {
      "type": "function",
      "name": "setERC721ContractPrimarySaleFeePercentage",
      "inputs": [
        {
          "name": "_contractAddress",
          "type": "address",
          "internalType": "address"
        },
        {
          "name": "_percentage",
          "type": "uint8",
          "internalType": "uint8"
        }
      ],
      "outputs": [],
      "stateMutability": "nonpayable"
    },
    {
      "type": "function",
      "name": "setMarketplaceFeePercentage",
      "inputs": [
        {
          "name": "_percentage",
          "type": "uint8",
          "internalType": "uint8"
        }
      ],
      "outputs": [],
      "stateMutability": "nonpayable"
    },
    {
      "type": "function",
      "name": "setMarketplaceMaxValue",
      "inputs": [
        {
          "name": "_maxValue",
          "type": "uint256",
          "internalType": "uint256"
        }
      ],
      "outputs": [],
      "stateMutability": "nonpayable"
    },
    {
      "type": "function",
      "name": "setMarketplaceMinValue",
      "inputs": [
        {
          "name": "_minValue",
          "type": "uint256",
          "internalType": "uint256"
        }
      ],
      "outputs": [],
      "stateMutability": "nonpayable"
    },
    {
      "type": "function",
      "name": "setPrimarySaleFeePercentage",
      "inputs": [
        {
          "name": "_primarySaleFeePercentage",
          "type": "uint8",
          "internalType": "uint8"
        }
      ],
      "outputs": [],
      "stateMutability": "nonpayable"
    },
    {
      "type": "function",
      "name": "setStakingFeePercentage",
      "inputs": [
        {
          "name": "_percentage",
          "type": "uint8",
          "internalType": "uint8"
        }
      ],
      "outputs": [],
      "stateMutability": "nonpayable"
    },
    {
      "type": "function",
      "name": "supportsInterface",
      "inputs": [
        {
          "name": "interfaceId",
          "type": "bytes4",
          "internalType": "bytes4"
        }
      ],
      "outputs": [
        {
          "name": "",
          "type": "bool",
          "internalType": "bool"
        }
      ],
      "stateMutability": "view"
    },
    {
      "type": "function",
      "name": "transferOwnership",
      "inputs": [
        {
          "name": "newOwner",
          "type": "address",
          "internalType": "address"
        }
      ],
      "outputs": [],
      "stateMutability": "nonpayable"
    },
    {
      "type": "event",
      "name": "OwnershipTransferred",
      "inputs": [
        {
          "name": "previousOwner",
          "type": "address",
          "indexed": true,
          "internalType": "address"
        },
        {
          "name": "newOwner",
          "type": "address",
          "indexed": true,
          "internalType": "address"
        }
      ],
      "anonymous": false
    },
    {
      "type": "event",
      "name": "RoleAdminChanged",
      "inputs": [
        {
          "name": "role",
          "type": "bytes32",
          "indexed": true,
          "internalType": "bytes32"
        },
        {
          "name": "previousAdminRole",
          "type": "bytes32",
          "indexed": true,
          "internalType": "bytes32"
        },
        {
          "name": "newAdminRole",
          "type": "bytes32",
          "indexed": true,
          "internalType": "bytes32"
        }
      ],
      "anonymous": false
    },
    {
      "type": "event",
      "name": "RoleGranted",
      "inputs": [
        {
          "name": "role",
          "type": "bytes32",
          "indexed": true,
          "internalType": "bytes32"
        },
        {
          "name": "account",
          "type": "address",
          "indexed": true,
          "internalType": "address"
        },
        {
          "name": "sender",
          "type": "address",
          "indexed": true,
          "internalType": "address"
        }
      ],
      "anonymous": false
    },
    {
      "type": "event",
      "name": "RoleRevoked",
      "inputs": [
        {
          "name": "role",
          "type": "bytes32",
          "indexed": true,
          "internalType": "bytes32"
        },
        {
          "name": "account",
          "type": "address",
          "indexed": true,
          "internalType": "address"
        },
        {
          "name": "sender",
          "type": "address",
          "indexed": true,
          "internalType": "address"
        }
      ],
      "anonymous": false
    }
  ],
  "bytecode": {
    "object": "0x608034620002cf57620017dc90601f38839003908101601f19168201906001600160401b03821183831017620002d45780839160409586948552833981010312620002cf576200004f81620002ea565b6200005e6020809301620002ea565b916200006a33620002ff565b600160fe1b6005556103e86006556007805461ffff1916610f031790556002805460ff199081169091556001600160a01b038381169182156200027557818616156200020b57600092838052600191828652888520828652865260ff898620541615620001d6575b7fe403a42bbb760a8b3610033c6ca9047404adf765af465dfb889617dd2d64bf6292838652808752898620838752875260ff8a87205416156200019f575b5050505033915416036200015d57506200012a90620002ff565b60028054610100600160a81b03191660089290921b610100600160a81b0316919091179055516114759081620003478239f35b60649084519062461bcd60e51b825280600483015260248201527f4f776e61626c653a2063616c6c6572206973206e6f7420746865206f776e65726044820152fd5b8386528087528986208387528752898620918254161790553391600080516020620017bc8339815191528580a43880808062000110565b84805282865288852082865286528885208382825416179055338286600080516020620017bc8339815191528180a4620000d2565b865162461bcd60e51b815260048101859052603c60248201527f636f6e7374727563746f723a3a4f6c64204d61726b6574706c6163652053657460448201527f74696e677320616464726573732063616e6e6f74206265206e756c6c000000006064820152608490fd5b865162461bcd60e51b815260048101859052602d60248201527f636f6e7374727563746f723a3a4e6577206f776e65722061646472657373206360448201526c185b9b9bdd081899481b9d5b1b609a1b6064820152608490fd5b600080fd5b634e487b7160e01b600052604160045260246000fd5b51906001600160a01b0382168203620002cf57565b600080546001600160a01b039283166001600160a01b03198216811783559216907f8be0079c531659141344cd1fd0a4f28419497f9722a3daafe3b4186f6b6457e09080a356fe608060408181526004918236101561001657600080fd5b600092833560e01c91826301ffc9a714610dc1575081630ff7784414610d705781631ad99c3714610d36578163248a9ca314610d0c5781632b702b5f14610b395781632cfda2f114610b175781632f2ff15d14610a6a578163364d60441461093f57816336568abe146108ad5781633765628c14610884578163511bc84c146108525781635a3c652d1461078e5781635c1b40f11461076f57816362029a1b1461074d5781636357f1ac14610719578163715018a6146106bf57816382ebaa591461058957816383475921146105675781638da5cb5b1461053f5781638e1addb21461051657816391d14854146104cf5781639d5fb53c146104ad578163a217fddf14610492578163ae312a9714610469578163b28a7bad1461043a578163b60c813514610392578163c3fc49521461035e578163c60870d3146102a0578163d547741f14610262578163f2fde38b1461019b575063f9a23e861461017a57600080fd5b346101975781600319360112610197576020906005549051908152f35b5080fd5b90503461025e57602036600319011261025e576101b6610e29565b906101bf611260565b6001600160a01b0391821692831561020c57505082546001600160a01b0319811683178455167f8be0079c531659141344cd1fd0a4f28419497f9722a3daafe3b4186f6b6457e08380a380f35b906020608492519162461bcd60e51b8352820152602660248201527f4f776e61626c653a206e6577206f776e657220697320746865207a65726f206160448201526564647265737360d01b6064820152fd5b8280fd5b9190503461025e578060031936011261025e5761029d91356102986001610287610e3f565b938387528160205286200154610e55565b6111ea565b80f35b90503461025e57602036600319011261025e576102bb610e14565b916102c4611260565b60ff806007541693169283116102e457505060ff19600254161760025580f35b90602060a492519162461bcd60e51b8352820152604860248201527f7365745374616b696e6746656550657263656e746167653a3a5f70657263656e60448201527f74616765206d757374206265203c3d206d61726b6574706c61636546656550656064820152677263656e7461676560c01b6084820152fd5b82843461038f57602036600319011261038f5750606461038760209360ff6007541690356112b8565b049051908152f35b80fd5b90503461025e57602036600319011261025e5760ff6103af610e14565b6103b7611260565b1691606483116103d157505060ff19600754161760075580f35b906020608492519162461bcd60e51b8352820152603760248201527f7365744d61726b6574706c61636546656550657263656e746167653a3a5f706560448201527f7263656e74616765206d757374206265203c3d203130300000000000000000006064820152fd5b50503461019757602036600319011261019757602090610458610e29565b5060ff60075460081c169051908152f35b5050346101975736600319011261038f57610482610e29565b5060243560ff81160361038f5780f35b50503461019757816003193601126101975751908152602090f35b50503461019757816003193601126101975760209060ff600254169051908152f35b90503461025e578160031936011261025e578160209360ff926104f0610e3f565b90358252600186528282206001600160a01b039091168252855220549151911615158152f35b82843461038f57602036600319011261038f5750606461038760209360ff6002541690356112b8565b505034610197578160031936011261019757905490516001600160a01b039091168152602090f35b50503461019757816003193601126101975760209060ff600754169051908152f35b9190503461025e57602091826003193601126106bb576105a7610e29565b91848052600191828552818620338752855260ff82872054161561065d5750600080516020611420833981519152938486528281526105ea838388200154610e55565b8486528281528186206001600160a01b039094168087529381528186205460ff1615610614578580f35b848652828152818620908487525284209060ff1982541617905533917f2f8788117e7eff1d82e926ec794901d17c78024a50270940304540a733656f0d8480a438808080808580f35b84608492519162461bcd60e51b8352820152603460248201527f6772616e744d61726b6574706c6163654163636573733a3a4d7573742062652060448201527318591b5a5b881d1bc818d85b1b081b595d1a1bd960621b6064820152fd5b8380fd5b833461038f578060031936011261038f576106d8611260565b80546001600160a01b03198116825581906001600160a01b03167f8be0079c531659141344cd1fd0a4f28419497f9722a3daafe3b4186f6b6457e08280a380f35b505034610197578060031936011261019757602090610736610e29565b50606461038760ff60075460081c166024356112b8565b83903461019757602036600319011261019757610768611260565b3560065580f35b5050346101975781600319360112610197576020906006549051908152f35b9190503461025e57606036600319011261025e57826107ab610e29565b60443580151580910361025e57600080516020611420833981519152835260016020528383203384526020526107e660ff85852054166113ad565b6002546001600160a01b039260089190911c831691823b1561084e57606492859187519889968795635a3c652d60e01b87521690850152602435602485015260448401525af1908115610845575061083c575080f35b61029d9061119e565b513d84823e3d90fd5b8480fd5b50503461019757806003193601126101975760209061087b610872610e29565b60243590611320565b90519015158152f35b505034610197578160031936011261019757602090516000805160206114208339815191528152f35b839150346101975782600319360112610197576108c8610e3f565b90336001600160a01b038316036108e4579061029d91356111ea565b608490602085519162461bcd60e51b8352820152602f60248201527f416363657373436f6e74726f6c3a2063616e206f6e6c792072656e6f756e636560448201526e103937b632b9903337b91039b2b63360891b6064820152fd5b838334610197576020928360031936011261025e5761095c610e29565b600080516020611420833981519152845260018552828420338552855260ff838520541615610a02578490602460018060a01b0391868360025460081c1687519687958694630d93581160e21b865216908401525af19283156109f757926109c8575b50519015158152f35b6109e9919250833d85116109f0575b6109e181836111c8565b810190611308565b90836109bf565b503d6109d7565b8251903d90823e3d90fd5b5083608492519162461bcd60e51b8352820152603b60248201527f6d61726b436f6e74726163743a3a4d757374206861766520544f4b454e5f4d4160448201527f524b5f524f4c4520726f6c6520746f2063616c6c206d6574686f6400000000006064820152fd5b90503461025e578160031936011261025e573590610a86610e3f565b908284526001602052610a9e60018286200154610e55565b828452600160209081528185206001600160a01b039093168086529290528084205460ff1615610acc578380f35b82845260016020528084208285526020528320600160ff1982541617905533917f2f8788117e7eff1d82e926ec794901d17c78024a50270940304540a733656f0d8480a43880808380f35b83903461019757602036600319011261019757610b32611260565b3560055580f35b9190503461025e578060031936011261025e57610b54610e29565b9160249081359267ffffffffffffffff808511610d085736602386011215610d085784830135908111610d0857600590368582841b88010111610d0457600080516020611420833981519152958689526001978460208a8152818c20338d528152610bc68c60ff9384912054166113ad565b6107d08511610c935793986001600160a01b0392831694908c5b8d8c8210610beb5780f35b848a8f92610c0893868252875281812033825287522054166113ad565b60025460081c85168e813b1561038f57888f8d8f8d958f938287938f8b606498519b8c9a8b99635a3c652d60e01b8b528a01521b0101359085015260448401525af18015610c8757610c78575b506000198114610c66578c01610be0565b634e487b7160e01b8e5260118a528a8efd5b610c819061119e565b38610c55565b8f8b51903d90823e3d90fd5b8760418a60a4938a519362461bcd60e51b85528401528201527f6d61726b546f6b656e734173536f6c643a3a417474656d7074656420746f206d60448201527f61726b206d6f7265207468616e203230303020746f6b656e7320617320736f6c6064820152601960fa1b6084820152fd5b8780fd5b8680fd5b90503461025e57602036600319011261025e57816020936001923581528285522001549051908152f35b833461038f57602036600319011261038f57610d50610e14565b610d58611260565b61ff006007549160081b169061ff0019161760075580f35b82843461038f57602036600319011261038f5760ff6007541660ff6002541690039060ff8211610dae575061038760209360ff6064931690356112b8565b634e487b7160e01b815260118452602490fd5b84913461025e57602036600319011261025e573563ffffffff60e01b811680910361025e5760209250637965db0b60e01b8114908115610e03575b5015158152f35b6301ffc9a760e01b14905083610dfc565b6004359060ff82168203610e2457565b600080fd5b600435906001600160a01b0382168203610e2457565b602435906001600160a01b0382168203610e2457565b600090808252600191602091838352604091828120338252845260ff838220541615610e82575050505050565b3391835195606087019167ffffffffffffffff92888110848211176110a7578652602a885286880194863687378851156111675760308653885183101561116757607860218a015360295b8381116110fd57506110bb57908551926080840190848210908211176110a757865260428352868301936060368637835115611093576030855383518210156110935790607860218501536041915b81831161102557505050610fe35792610fb16048610fa29794610fd5946044989785519a8b93610f798b86019a7f416363657373436f6e74726f6c3a206163636f756e74200000000000000000008c52518092603788019061117b565b8401917001034b99036b4b9b9b4b733903937b6329607d1b60378401525180938684019061117b565b010360288101895201876111c8565b5194859362461bcd60e51b855260048501525180928160248601528585019061117b565b601f01601f19168101030190fd5b60648585519062461bcd60e51b825280600483015260248201527f537472696e67733a20686578206c656e67746820696e73756666696369656e746044820152fd5b909192600f8116601081101561107f576f181899199a1a9b1b9c1cb0b131b232b360811b901a61105585876112e1565b5360041c92801561106b57600019019190610f1c565b634e487b7160e01b82526011600452602482fd5b634e487b7160e01b83526032600452602483fd5b634e487b7160e01b81526032600452602490fd5b634e487b7160e01b85526041600452602485fd5b60648787519062461bcd60e51b825280600483015260248201527f537472696e67733a20686578206c656e67746820696e73756666696369656e746044820152fd5b90600f81166010811015611153576f181899199a1a9b1b9c1cb0b131b232b360811b901a61112b838c6112e1565b5360041c90801561113f5760001901610ecd565b634e487b7160e01b86526011600452602486fd5b634e487b7160e01b87526032600452602487fd5b634e487b7160e01b85526032600452602485fd5b60005b83811061118e5750506000910152565b818101518382015260200161117e565b67ffffffffffffffff81116111b257604052565b634e487b7160e01b600052604160045260246000fd5b90601f8019910116810190811067ffffffffffffffff8211176111b257604052565b906000918083526001602052604083209160018060a01b03169182845260205260ff60408420541661121b57505050565b8083526001602052604083208284526020526040832060ff1981541690557ff6391f5c32d9c69d2a47ea670b442974b53935d1edc7fd64eb21e047a839171b339380a4565b6000546001600160a01b0316330361127457565b606460405162461bcd60e51b815260206004820152602060248201527f4f776e61626c653a2063616c6c6572206973206e6f7420746865206f776e65726044820152fd5b818102929181159184041417156112cb57565b634e487b7160e01b600052601160045260246000fd5b9081518110156112f2570160200190565b634e487b7160e01b600052603260045260246000fd5b90816020910312610e2457518015158103610e245790565b6001600160a01b039081166000818152600460205260409020549092906113a557604460209260025460081c16936040519485938492631446f21360e21b8452600484015260248301525afa9081156113995760009161137e575090565b611396915060203d81116109f0576109e181836111c8565b90565b6040513d6000823e3d90fd5b505050600190565b156113b457565b60405162461bcd60e51b815260206004820152603e60248201527f6d61726b455243373231546f6b656e3a3a4d757374206861766520544f4b454e60448201527f5f4d41524b5f524f4c4520726f6c6520746f2063616c6c206d6574686f6400006064820152608490fdfee403a42bbb760a8b3610033c6ca9047404adf765af465dfb889617dd2d64bf62a2646970667358221220e5674038fb0e6414b836809a9391b24350d8a7cb92d22b07b36f3df82817fedc64736f6c634300081200332f8788117e7eff1d82e926ec794901d17c78024a50270940304540a733656f0d",
    "linkReferences": {}
  },
  "methodIdentifiers": {
    "DEFAULT_ADMIN_ROLE()": "a217fddf",
    "TOKEN_MARK_ROLE()": "3765628c",
    "calculateMarketplaceFee(uint256)": "c3fc4952",
    "calculateMarketplacePayoutFee(uint256)": "0ff77844",
    "calculatePrimarySaleFee(address,uint256)": "6357f1ac",
    "calculateStakingFee(uint256)": "8e1addb2",
    "getERC721ContractPrimarySaleFeePercentage(address)": "b28a7bad",
    "getMarketplaceFeePercentage()": "83475921",
    "getMarketplaceMaxValue()": "f9a23e86",
    "getMarketplaceMinValue()": "5c1b40f1",
    "getRoleAdmin(bytes32)": "248a9ca3",
    "getStakingFeePercentage()": "9d5fb53c",
    "grantMarketplaceAccess(address)": "82ebaa59",
    "grantRole(bytes32,address)": "2f2ff15d",
    "hasERC721TokenSold(address,uint256)": "511bc84c",
    "hasRole(bytes32,address)": "91d14854",
    "markContractAsSold(address)": "364d6044",
    "markERC721Token(address,uint256,bool)": "5a3c652d",
    "markTokensAsSold(address,uint256[])": "2b702b5f",
    "owner()": "8da5cb5b",
    "renounceOwnership()": "715018a6",
    "renounceRole(bytes32,address)": "36568abe",
    "revokeRole(bytes32,address)": "d547741f",
    "setERC721ContractPrimarySaleFeePercentage(address,uint8)": "ae312a97",
    "setMarketplaceFeePercentage(uint8)": "b60c8135",
    "setMarketplaceMaxValue(uint256)": "2cfda2f1",
    "setMarketplaceMinValue(uint256)": "62029a1b",
    "setPrimarySaleFeePercentage(uint8)": "1ad99c37",
    "setStakingFeePercentage(uint8)": "c60870d3",
    "supportsInterface(bytes4)": "01ffc9a7",
    "transferOwnership(address)": "f2fde38b"
  },
  "id": 164
}