{
  "abi": [
    {
      "type": "constructor",
      "inputs": [
        {
          "name": "newOwner",
          "type": "address",
          "internalType": "address"
        },
        {
          "name": "oldSettings",
          "type": "address",
          "internalType": "address"
        }
      ],
      "stateMutability": "nonpayable"
    },
    {
      "type": "function",
      "name": "DEFAULT_ADMIN_ROLE",
      "inputs": [],
      "outputs": [
        {
          "name": "",
          "type": "bytes32",
          "internalType": "bytes32"
        }
      ],
      "stateMutability": "view"
    },
    {
      "type": "function",
      "name": "TOKEN_MARK_ROLE",
      "inputs": [],
      "outputs": [
        {
          "name": "",
          "type": "bytes32",
          "internalType": "bytes32"
        }
      ],
      "stateMutability": "view"
    },
    {
      "type": "function",
      "name": "calculateMarketplaceFee",
      "inputs": [
        {
          "name": "_amount",
          "type": "uint256",
          "internalType": "uint256"
        }
      ],
      "outputs": [
        {
          "name": "",
          "type": "uint256",
          "internalType": "uint256"
        }
      ],
      "stateMutability": "view"
    },
    {
      "type": "function",
      "name": "calculatePrimarySaleFee",
      "inputs": [
        {
          "name": "",
          "type": "address",
          "internalType": "address"
        },
        {
          "name": "_amount",
          "type": "uint256",
          "internalType": "uint256"
        }
      ],
      "outputs": [
        {
          "name": "",
          "type": "uint256",
          "internalType": "uint256"
        }
      ],
      "stateMutability": "view"
    },
    {
      "type": "function",
      "name": "getERC721ContractPrimarySaleFeePercentage",
      "inputs": [
        {
          "name": "",
          "type": "address",
          "internalType": "address"
        }
      ],
      "outputs": [
        {
          "name": "",
          "type": "uint8",
          "internalType": "uint8"
        }
      ],
      "stateMutability": "view"
    },
    {
      "type": "function",
      "name": "getMarketplaceFeePercentage",
      "inputs": [],
      "outputs": [
        {
          "name": "",
          "type": "uint8",
          "internalType": "uint8"
        }
      ],
      "stateMutability": "view"
    },
    {
      "type": "function",
      "name": "getMarketplaceMaxValue",
      "inputs": [],
      "outputs": [
        {
          "name": "",
          "type": "uint256",
          "internalType": "uint256"
        }
      ],
      "stateMutability": "view"
    },
    {
      "type": "function",
      "name": "getMarketplaceMinValue",
      "inputs": [],
      "outputs": [
        {
          "name": "",
          "type": "uint256",
          "internalType": "uint256"
        }
      ],
      "stateMutability": "view"
    },
    {
      "type": "function",
      "name": "getRoleAdmin",
      "inputs": [
        {
          "name": "role",
          "type": "bytes32",
          "internalType": "bytes32"
        }
      ],
      "outputs": [
        {
          "name": "",
          "type": "bytes32",
          "internalType": "bytes32"
        }
      ],
      "stateMutability": "view"
    },
    {
      "type": "function",
      "name": "grantMarketplaceAccess",
      "inputs": [
        {
          "name": "_account",
          "type": "address",
          "internalType": "address"
        }
      ],
      "outputs": [],
      "stateMutability": "nonpayable"
    },
    {
      "type": "function",
      "name": "grantRole",
      "inputs": [
        {
          "name": "role",
          "type": "bytes32",
          "internalType": "bytes32"
        },
        {
          "name": "account",
          "type": "address",
          "internalType": "address"
        }
      ],
      "outputs": [],
      "stateMutability": "nonpayable"
    },
    {
      "type": "function",
      "name": "hasERC721TokenSold",
      "inputs": [
        {
          "name": "_contractAddress",
          "type": "address",
          "internalType": "address"
        },
        {
          "name": "_tokenId",
          "type": "uint256",
          "internalType": "uint256"
        }
      ],
      "outputs": [
        {
          "name": "",
          "type": "bool",
          "internalType": "bool"
        }
      ],
      "stateMutability": "view"
    },
    {
      "type": "function",
      "name": "hasRole",
      "inputs": [
        {
          "name": "role",
          "type": "bytes32",
          "internalType": "bytes32"
        },
        {
          "name": "account",
          "type": "address",
          "internalType": "address"
        }
      ],
      "outputs": [
        {
          "name": "",
          "type": "bool",
          "internalType": "bool"
        }
      ],
      "stateMutability": "view"
    },
    {
      "type": "function",
      "name": "markContractAsSold",
      "inputs": [
        {
          "name": "_contractAddress",
          "type": "address",
          "internalType": "address"
        }
      ],
      "outputs": [
        {
          "name": "",
          "type": "bool",
          "internalType": "bool"
        }
      ],
      "stateMutability": "nonpayable"
    },
    {
      "type": "function",
      "name": "markERC721Token",
      "inputs": [
        {
          "name": "_contractAddress",
          "type": "address",
          "internalType": "address"
        },
        {
          "name": "_tokenId",
          "type": "uint256",
          "internalType": "uint256"
        },
        {
          "name": "_hasSold",
          "type": "bool",
          "internalType": "bool"
        }
      ],
      "outputs": [],
      "stateMutability": "nonpayable"
    },
    {
      "type": "function",
      "name": "markTokensAsSold",
      "inputs": [
        {
          "name": "_originContract",
          "type": "address",
          "internalType": "address"
        },
        {
          "name": "_tokenIds",
          "type": "uint256[]",
          "internalType": "uint256[]"
        }
      ],
      "outputs": [],
      "stateMutability": "nonpayable"
    },
    {
      "type": "function",
      "name": "owner",
      "inputs": [],
      "outputs": [
        {
          "name": "",
          "type": "address",
          "internalType": "address"
        }
      ],
      "stateMutability": "view"
    },
    {
      "type": "function",
      "name": "renounceOwnership",
      "inputs": [],
      "outputs": [],
      "stateMutability": "nonpayable"
    },
    {
      "type": "function",
      "name": "renounceRole",
      "inputs": [
        {
          "name": "role",
          "type": "bytes32",
          "internalType": "bytes32"
        },
        {
          "name": "account",
          "type": "address",
          "internalType": "address"
        }
      ],
      "outputs": [],
      "stateMutability": "nonpayable"
    },
    {
      "type": "function",
      "name": "revokeRole",
      "inputs": [
        {
          "name": "role",
          "type": "bytes32",
          "internalType": "bytes32"
        },
        {
          "name": "account",
          "type": "address",
          "internalType": "address"
        }
      ],
      "outputs": [],
      "stateMutability": "nonpayable"
    },
    {
      "type": "function",
      "name": "setERC721ContractPrimarySaleFeePercentage",
      "inputs": [
        {
          "name": "_contractAddress",
          "type": "address",
          "internalType": "address"
        },
        {
          "name": "_percentage",
          "type": "uint8",
          "internalType": "uint8"
        }
      ],
      "outputs": [],
      "stateMutability": "nonpayable"
    },
    {
      "type": "function",
      "name": "setMarketplaceFeePercentage",
      "inputs": [
        {
          "name": "_percentage",
          "type": "uint8",
          "internalType": "uint8"
        }
      ],
      "outputs": [],
      "stateMutability": "nonpayable"
    },
    {
      "type": "function",
      "name": "setMarketplaceMaxValue",
      "inputs": [
        {
          "name": "_maxValue",
          "type": "uint256",
          "internalType": "uint256"
        }
      ],
      "outputs": [],
      "stateMutability": "nonpayable"
    },
    {
      "type": "function",
      "name": "setMarketplaceMinValue",
      "inputs": [
        {
          "name": "_minValue",
          "type": "uint256",
          "internalType": "uint256"
        }
      ],
      "outputs": [],
      "stateMutability": "nonpayable"
    },
    {
      "type": "function",
      "name": "setPrimarySaleFeePercentage",
      "inputs": [
        {
          "name": "_primarySaleFeePercentage",
          "type": "uint8",
          "internalType": "uint8"
        }
      ],
      "outputs": [],
      "stateMutability": "nonpayable"
    },
    {
      "type": "function",
      "name": "supportsInterface",
      "inputs": [
        {
          "name": "interfaceId",
          "type": "bytes4",
          "internalType": "bytes4"
        }
      ],
      "outputs": [
        {
          "name": "",
          "type": "bool",
          "internalType": "bool"
        }
      ],
      "stateMutability": "view"
    },
    {
      "type": "function",
      "name": "transferOwnership",
      "inputs": [
        {
          "name": "newOwner",
          "type": "address",
          "internalType": "address"
        }
      ],
      "outputs": [],
      "stateMutability": "nonpayable"
    },
    {
      "type": "event",
      "name": "OwnershipTransferred",
      "inputs": [
        {
          "name": "previousOwner",
          "type": "address",
          "indexed": true,
          "internalType": "address"
        },
        {
          "name": "newOwner",
          "type": "address",
          "indexed": true,
          "internalType": "address"
        }
      ],
      "anonymous": false
    },
    {
      "type": "event",
      "name": "RoleAdminChanged",
      "inputs": [
        {
          "name": "role",
          "type": "bytes32",
          "indexed": true,
          "internalType": "bytes32"
        },
        {
          "name": "previousAdminRole",
          "type": "bytes32",
          "indexed": true,
          "internalType": "bytes32"
        },
        {
          "name": "newAdminRole",
          "type": "bytes32",
          "indexed": true,
          "internalType": "bytes32"
        }
      ],
      "anonymous": false
    },
    {
      "type": "event",
      "name": "RoleGranted",
      "inputs": [
        {
          "name": "role",
          "type": "bytes32",
          "indexed": true,
          "internalType": "bytes32"
        },
        {
          "name": "account",
          "type": "address",
          "indexed": true,
          "internalType": "address"
        },
        {
          "name": "sender",
          "type": "address",
          "indexed": true,
          "internalType": "address"
        }
      ],
      "anonymous": false
    },
    {
      "type": "event",
      "name": "RoleRevoked",
      "inputs": [
        {
          "name": "role",
          "type": "bytes32",
          "indexed": true,
          "internalType": "bytes32"
        },
        {
          "name": "account",
          "type": "address",
          "indexed": true,
          "internalType": "address"
        },
        {
          "name": "sender",
          "type": "address",
          "indexed": true,
          "internalType": "address"
        }
      ],
      "anonymous": false
    }
  ],
  "bytecode": {
    "object": "0x608034620002b657620016d990601f38839003908101601f19168201906001600160401b03821183831017620002bb5780839160409586948552833981010312620002b6576200004f81620002d1565b6200005e6020809301620002d1565b916200006a33620002e6565b600160fe1b6005556103e86006556007805461ffff1916610f031790556001600160a01b03928284169081156200025c578416938415620001f257600091828052600190818552878420818552855260ff888520541615620001bb575b7fe403a42bbb760a8b3610033c6ca9047404adf765af465dfb889617dd2d64bf6291828552808652888520828652865260ff89862054161562000182575b50505033915416036200014057506200011e90620002e6565b600280546001600160a01b0319169190911790555161138b90816200032e8239f35b60649084519062461bcd60e51b825280600483015260248201527f4f776e61626c653a2063616c6c6572206973206e6f7420746865206f776e65726044820152fd5b82855280865288852082865286528885209060ff198254161790553391600080516020620016b98339815191528580a438808062000105565b8380528185528784208185528552878420805460ff191683179055338185600080516020620016b98339815191528180a4620000c7565b855162461bcd60e51b815260048101849052603c60248201527f636f6e7374727563746f723a3a4f6c64204d61726b6574706c6163652053657460448201527f74696e677320616464726573732063616e6e6f74206265206e756c6c000000006064820152608490fd5b855162461bcd60e51b815260048101849052602d60248201527f636f6e7374727563746f723a3a4e6577206f776e65722061646472657373206360448201526c185b9b9bdd081899481b9d5b1b609a1b6064820152608490fd5b600080fd5b634e487b7160e01b600052604160045260246000fd5b51906001600160a01b0382168203620002b657565b600080546001600160a01b039283166001600160a01b03198216811783559216907f8be0079c531659141344cd1fd0a4f28419497f9722a3daafe3b4186f6b6457e09080a356fe608060408181526004918236101561001657600080fd5b600092833560e01c91826301ffc9a714610c32575081631ad99c3714610bf8578163248a9ca314610bce5781632b702b5f146109fe5781632cfda2f1146109dc5781632f2ff15d1461092f578163364d60441461080557816336568abe146107735781633765628c1461074a578163511bc84c146107185781635a3c652d146106595781635c1b40f11461063a57816362029a1b146106185781636357f1ac146105e4578163715018a61461058a57816382ebaa591461045457816383475921146104325781638da5cb5b1461040a57816391d14854146103c3578163a217fddf146103a8578163ae312a971461037f578163b28a7bad14610350578163b60c8135146102a8578163c3fc495214610274578163d547741f14610236578163f2fde38b1461016f575063f9a23e861461014e57600080fd5b3461016b578160031936011261016b576020906005549051908152f35b5080fd5b9050346102325760203660031901126102325761018a610c9a565b906101936110d1565b6001600160a01b039182169283156101e057505082546001600160a01b0319811683178455167f8be0079c531659141344cd1fd0a4f28419497f9722a3daafe3b4186f6b6457e08380a380f35b906020608492519162461bcd60e51b8352820152602660248201527f4f776e61626c653a206e6577206f776e657220697320746865207a65726f206160448201526564647265737360d01b6064820152fd5b8280fd5b91905034610232578060031936011261023257610271913561026c600161025b610cb0565b938387528160205286200154610cc6565b61105b565b80f35b8284346102a55760203660031901126102a55750606461029d60209360ff600754169035611129565b049051908152f35b80fd5b9050346102325760203660031901126102325760ff6102c5610c85565b6102cd6110d1565b1691606483116102e757505060ff19600754161760075580f35b906020608492519162461bcd60e51b8352820152603760248201527f7365744d61726b6574706c61636546656550657263656e746167653a3a5f706560448201527f7263656e74616765206d757374206265203c3d203130300000000000000000006064820152fd5b50503461016b57602036600319011261016b5760209061036e610c9a565b5060ff60075460081c169051908152f35b50503461016b573660031901126102a557610398610c9a565b5060243560ff8116036102a55780f35b50503461016b578160031936011261016b5751908152602090f35b9050346102325781600319360112610232578160209360ff926103e4610cb0565b90358252600186528282206001600160a01b039091168252855220549151911615158152f35b50503461016b578160031936011261016b57905490516001600160a01b039091168152602090f35b50503461016b578160031936011261016b5760209060ff600754169051908152f35b91905034610232576020918260031936011261058657610472610c9a565b91848052600191828552818620338752855260ff8287205416156105285750600080516020611336833981519152938486528281526104b5838388200154610cc6565b8486528281528186206001600160a01b039094168087529381528186205460ff16156104df578580f35b848652828152818620908487525284209060ff1982541617905533917f2f8788117e7eff1d82e926ec794901d17c78024a50270940304540a733656f0d8480a438808080808580f35b84608492519162461bcd60e51b8352820152603460248201527f6772616e744d61726b6574706c6163654163636573733a3a4d7573742062652060448201527318591b5a5b881d1bc818d85b1b081b595d1a1bd960621b6064820152fd5b8380fd5b83346102a557806003193601126102a5576105a36110d1565b80546001600160a01b03198116825581906001600160a01b03167f8be0079c531659141344cd1fd0a4f28419497f9722a3daafe3b4186f6b6457e08280a380f35b50503461016b578060031936011261016b57602090610601610c9a565b50606461029d60ff60075460081c16602435611129565b83903461016b57602036600319011261016b576106336110d1565b3560065580f35b50503461016b578160031936011261016b576020906006549051908152f35b919050346102325760603660031901126102325782610676610c9a565b60443580151580910361023257600080516020611336833981519152835260016020528383203384526020526106b160ff8585205416611226565b6002546001600160a01b039290831691823b1561071457606492859187519889968795635a3c652d60e01b87521690850152602435602485015260448401525af190811561070b5750610702575080f35b6102719061100f565b513d84823e3d90fd5b8480fd5b50503461016b578060031936011261016b57602090610741610738610c9a565b60243590611179565b90519015158152f35b50503461016b578160031936011261016b57602090516000805160206113368339815191528152f35b8391503461016b578260031936011261016b5761078e610cb0565b90336001600160a01b038316036107aa5790610271913561105b565b608490602085519162461bcd60e51b8352820152602f60248201527f416363657373436f6e74726f6c3a2063616e206f6e6c792072656e6f756e636560448201526e103937b632b9903337b91039b2b63360891b6064820152fd5b8284346102a5576020928360031936011261016b57610822610c9a565b600080516020611336833981519152835260018552838320338452855260ff8484205416156108c6576001600160a01b0316808352818552918390205461086d575061074190611298565b825162461bcd60e51b8152908101849052602d60248201527f6d61726b436f6e74726163743a3a436f6e747261637420616c7265616479206d60448201526c185c9ad95908185cc81cdbdb19609a1b6064820152608490fd5b835162461bcd60e51b8152808301869052603b60248201527f6d61726b436f6e74726163743a3a4d757374206861766520544f4b454e5f4d4160448201527f524b5f524f4c4520726f6c6520746f2063616c6c206d6574686f6400000000006064820152608490fd5b905034610232578160031936011261023257359061094b610cb0565b90828452600160205261096360018286200154610cc6565b828452600160209081528185206001600160a01b039093168086529290528084205460ff1615610991578380f35b82845260016020528084208285526020528320600160ff1982541617905533917f2f8788117e7eff1d82e926ec794901d17c78024a50270940304540a733656f0d8480a43880808380f35b83903461016b57602036600319011261016b576109f76110d1565b3560055580f35b91905034610232578060031936011261023257610a19610c9a565b9160249081359267ffffffffffffffff808511610bca5736602386011215610bca5784830135908111610bca57600590368582841b88010111610bc657600080516020611336833981519152958689526001978460208a8152818c20338d528152610a8b8c60ff938491205416611226565b6107d08511610b555793986001600160a01b0392831694908c5b8d8c8210610ab05780f35b848a8f92610acd9386825287528181203382528752205416611226565b60025485168e813b156102a557888f8d8f8d958f938287938f8b606498519b8c9a8b99635a3c652d60e01b8b528a01521b0101359085015260448401525af18015610b4957610b3a575b506000198114610b28578c01610aa5565b634e487b7160e01b8e5260118a528a8efd5b610b439061100f565b38610b17565b8f8b51903d90823e3d90fd5b8760418a60a4938a519362461bcd60e51b85528401528201527f6d61726b546f6b656e734173536f6c643a3a417474656d7074656420746f206d60448201527f61726b206d6f7265207468616e203230303020746f6b656e7320617320736f6c6064820152601960fa1b6084820152fd5b8780fd5b8680fd5b90503461023257602036600319011261023257816020936001923581528285522001549051908152f35b83346102a55760203660031901126102a557610c12610c85565b610c1a6110d1565b61ff006007549160081b169061ff0019161760075580f35b849134610232576020366003190112610232573563ffffffff60e01b81168091036102325760209250637965db0b60e01b8114908115610c74575b5015158152f35b6301ffc9a760e01b14905083610c6d565b6004359060ff82168203610c9557565b600080fd5b600435906001600160a01b0382168203610c9557565b602435906001600160a01b0382168203610c9557565b600090808252600191602091838352604091828120338252845260ff838220541615610cf3575050505050565b3391835195606087019167ffffffffffffffff9288811084821117610f18578652602a88528688019486368737885115610fd857603086538851831015610fd857607860218a015360295b838111610f6e5750610f2c5790855192608084019084821090821117610f1857865260428352868301936060368637835115610f0457603085538351821015610f045790607860218501536041915b818311610e9657505050610e545792610e226048610e139794610e46946044989785519a8b93610dea8b86019a7f416363657373436f6e74726f6c3a206163636f756e74200000000000000000008c525180926037880190610fec565b8401917001034b99036b4b9b9b4b733903937b6329607d1b603784015251809386840190610fec565b01036028810189520187611039565b5194859362461bcd60e51b8552600485015251809281602486015285850190610fec565b601f01601f19168101030190fd5b60648585519062461bcd60e51b825280600483015260248201527f537472696e67733a20686578206c656e67746820696e73756666696369656e746044820152fd5b909192600f81166010811015610ef0576f181899199a1a9b1b9c1cb0b131b232b360811b901a610ec68587611152565b5360041c928015610edc57600019019190610d8d565b634e487b7160e01b82526011600452602482fd5b634e487b7160e01b83526032600452602483fd5b634e487b7160e01b81526032600452602490fd5b634e487b7160e01b85526041600452602485fd5b60648787519062461bcd60e51b825280600483015260248201527f537472696e67733a20686578206c656e67746820696e73756666696369656e746044820152fd5b90600f81166010811015610fc4576f181899199a1a9b1b9c1cb0b131b232b360811b901a610f9c838c611152565b5360041c908015610fb05760001901610d3e565b634e487b7160e01b86526011600452602486fd5b634e487b7160e01b87526032600452602487fd5b634e487b7160e01b85526032600452602485fd5b60005b838110610fff5750506000910152565b8181015183820152602001610fef565b67ffffffffffffffff811161102357604052565b634e487b7160e01b600052604160045260246000fd5b90601f8019910116810190811067ffffffffffffffff82111761102357604052565b906000918083526001602052604083209160018060a01b03169182845260205260ff60408420541661108c57505050565b8083526001602052604083208284526020526040832060ff1981541690557ff6391f5c32d9c69d2a47ea670b442974b53935d1edc7fd64eb21e047a839171b339380a4565b6000546001600160a01b031633036110e557565b606460405162461bcd60e51b815260206004820152602060248201527f4f776e61626c653a2063616c6c6572206973206e6f7420746865206f776e65726044820152fd5b8181029291811591840414171561113c57565b634e487b7160e01b600052601160045260246000fd5b908151811015611163570160200190565b634e487b7160e01b600052603260045260246000fd5b6001600160a01b03908116600081815260046020526040812054919390929161121d57604460209260025416946040519586938492631446f21360e21b8452600484015260248301525afa9182156112105781926111d657505090565b9091506020813d8211611208575b816111f160209383611039565b8101031261016b57519081151582036102a5575090565b3d91506111e4565b50604051903d90823e3d90fd5b50505050600190565b1561122d57565b60405162461bcd60e51b815260206004820152603e60248201527f6d61726b455243373231546f6b656e3a3a4d757374206861766520544f4b454e60448201527f5f4d41524b5f524f4c4520726f6c6520746f2063616c6c206d6574686f6400006064820152608490fd5b600081815260046020526040812054611330576003546801000000000000000081101561131c5760018101806003558110156113085790826040927fc2575a0e9e593c00f959f8c92f12db2869c3395a3b0502d05e2516446f71f85b015560035492815260046020522055600190565b634e487b7160e01b82526032600452602482fd5b634e487b7160e01b82526041600452602482fd5b90509056fee403a42bbb760a8b3610033c6ca9047404adf765af465dfb889617dd2d64bf62a2646970667358221220e15d5b6220f7cc2bdfb593cb60d024d90fb7a0ce64669e0fb985bd73394f45ce64736f6c634300081200332f8788117e7eff1d82e926ec794901d17c78024a50270940304540a733656f0d",
    "linkReferences": {}
  },
  "methodIdentifiers": {
    "DEFAULT_ADMIN_ROLE()": "a217fddf",
    "TOKEN_MARK_ROLE()": "3765628c",
    "calculateMarketplaceFee(uint256)": "c3fc4952",
    "calculatePrimarySaleFee(address,uint256)": "6357f1ac",
    "getERC721ContractPrimarySaleFeePercentage(address)": "b28a7bad",
    "getMarketplaceFeePercentage()": "83475921",
    "getMarketplaceMaxValue()": "f9a23e86",
    "getMarketplaceMinValue()": "5c1b40f1",
    "getRoleAdmin(bytes32)": "248a9ca3",
    "grantMarketplaceAccess(address)": "82ebaa59",
    "grantRole(bytes32,address)": "2f2ff15d",
    "hasERC721TokenSold(address,uint256)": "511bc84c",
    "hasRole(bytes32,address)": "91d14854",
    "markContractAsSold(address)": "364d6044",
    "markERC721Token(address,uint256,bool)": "5a3c652d",
    "markTokensAsSold(address,uint256[])": "2b702b5f",
    "owner()": "8da5cb5b",
    "renounceOwnership()": "715018a6",
    "renounceRole(bytes32,address)": "36568abe",
    "revokeRole(bytes32,address)": "d547741f",
    "setERC721ContractPrimarySaleFeePercentage(address,uint8)": "ae312a97",
    "setMarketplaceFeePercentage(uint8)": "b60c8135",
    "setMarketplaceMaxValue(uint256)": "2cfda2f1",
    "setMarketplaceMinValue(uint256)": "62029a1b",
    "setPrimarySaleFeePercentage(uint8)": "1ad99c37",
    "supportsInterface(bytes4)": "01ffc9a7",
    "transferOwnership(address)": "f2fde38b"
  },
  "id": 163
}