{
  "abi": [
    {
      "type": "function",
      "name": "payments",
      "inputs": [
        {
          "name": "dest",
          "type": "address",
          "internalType": "address"
        }
      ],
      "outputs": [
        {
          "name": "",
          "type": "uint256",
          "internalType": "uint256"
        }
      ],
      "stateMutability": "view"
    },
    {
      "type": "function",
      "name": "payout",
      "inputs": [
        {
          "name": "_splits",
          "type": "address[]",
          "internalType": "address[]"
        },
        {
          "name": "_amounts",
          "type": "uint256[]",
          "internalType": "uint256[]"
        }
      ],
      "outputs": [],
      "stateMutability": "payable"
    },
    {
      "type": "function",
      "name": "refund",
      "inputs": [
        {
          "name": "_payee",
          "type": "address",
          "internalType": "address"
        },
        {
          "name": "_amount",
          "type": "uint256",
          "internalType": "uint256"
        }
      ],
      "outputs": [],
      "stateMutability": "payable"
    },
    {
      "type": "function",
      "name": "withdrawPayments",
      "inputs": [
        {
          "name": "payee",
          "type": "address",
          "internalType": "address payable"
        }
      ],
      "outputs": [],
      "stateMutability": "nonpayable"
    }
  ],
  "bytecode": {
    "object": "0x60a0806040523461007e576104fd8181016001600160401b03811183821017610068578291610612833903906000f0801561005c5760805260405161058e9081610084823960805181818160940152818161036601526104b10152f35b6040513d6000823e3d90fd5b634e487b7160e01b600052604160045260246000fd5b600080fdfe60806040908082526004918236101561001757600080fd5b600091823560e01c90816331b3eb941461033957508063410085df1461027f578063c176e639146101145763e2982c211461005157600080fd5b34610110576020928360031936011261010c578361006d6103cf565b83516371d4ed8d60e11b81526001600160a01b0391821693810193909352829060249082907f0000000000000000000000000000000000000000000000000000000000000000165afa9283156101015780936100cc575b505051908152f35b909192508382813d83116100fa575b6100e58183610445565b810103126100f75750519038806100c4565b80fd5b503d6100db565b8251903d90823e3d90fd5b8280fd5b5080fd5b5080839160031936011261010c5767ffffffffffffffff90823582811161027b5761014290369085016103ea565b9060249384359081116102775761015f90929192369087016103ea565b9092879388935b8085106101be575050505050340361017c578380f35b606492916020601792519362461bcd60e51b85528401528201527f7061796f75743a3a6e6f7420656e6f7567682073656e740000000000000000006044820152fd5b90919293946101ce86868561051e565b35810180911161020f57946001600160a01b036101f46101ef83858861051e565b610544565b16610221575b600019811461020f5760010193929190610166565b634e487b7160e01b8a5260118952878afd5b898080806102336101ef86888b61051e565b61023e868b8a61051e565b35905af161024a610467565b506101fa576102726102606101ef83858861051e565b61026b83888761051e565b35906104a7565b6101fa565b8680fd5b8480fd5b5080839160031936011261010c576102956103cf565b91602435916001600160a01b038416156102e457505080340361010c57806102bb578280f35b8280808084865af16102cb610467565b50156102d5578280f35b6102de916104a7565b81808280f35b906020608492519162461bcd60e51b8352820152602960248201527f726566756e643a3a6e6f207061796565732063616e20626520746865207a65726044820152686f206164647265737360b81b6064820152fd5b9293849150346101105760203660031901126101105780356001600160a01b03818116918290036103cb577f00000000000000000000000000000000000000000000000000000000000000001690813b156103cb578360249287949285936351cff8d960e01b85528401525af19081156103c257506103b6575080f35b6103bf9061041b565b80f35b513d84823e3d90fd5b8380fd5b600435906001600160a01b03821682036103e557565b600080fd5b9181601f840112156103e55782359167ffffffffffffffff83116103e5576020808501948460051b0101116103e557565b67ffffffffffffffff811161042f57604052565b634e487b7160e01b600052604160045260246000fd5b90601f8019910116810190811067ffffffffffffffff82111761042f57604052565b3d156104a2573d9067ffffffffffffffff821161042f5760405191610496601f8201601f191660200184610445565b82523d6000602084013e565b606090565b6001600160a01b037f0000000000000000000000000000000000000000000000000000000000000000811692833b156103e557600092602491604051958694859363f340fa0160e01b85521660048401525af18015610512576105075750565b6105109061041b565b565b6040513d6000823e3d90fd5b919081101561052e5760051b0190565b634e487b7160e01b600052603260045260246000fd5b356001600160a01b03811681036103e5579056fea264697066735822122045da63cb40b042c3f5c117553c68d2a8d1994331843d0cc9675cc81d2143511864736f6c634300081200336080806040523461005b5760008054336001600160a01b0319821681178355916001600160a01b03909116907f8be0079c531659141344cd1fd0a4f28419497f9722a3daafe3b4186f6b6457e09080a361049c90816100618239f35b600080fdfe60406080815260048036101561001457600080fd5b600091823560e01c806351cff8d914610279578063715018a61461021c5780638da5cb5b146101f0578063e3a9db1a146101b6578063f2fde38b146100ed5763f340fa011461006257600080fd5b60203660031901126100e95781356001600160a01b03811692908390036100e55761008b61040e565b82845260016020528184208054913483018093116100d2575055513481527f2da466a7b24304f47e87fa2e1e5a81b9831ce54fec19055ce277ca2f39ba42c490602090a280f35b634e487b7160e01b865260119052602485fd5b8380fd5b8280fd5b50346100e95760203660031901126100e9576001600160a01b038235818116939192908490036101b25761011f61040e565b831561016057505082546001600160a01b0319811683178455167f8be0079c531659141344cd1fd0a4f28419497f9722a3daafe3b4186f6b6457e08380a380f35b906020608492519162461bcd60e51b8352820152602660248201527f4f776e61626c653a206e6577206f776e657220697320746865207a65726f206160448201526564647265737360d01b6064820152fd5b8480fd5b5090346100e95760203660031901126100e957356001600160a01b038116908190036100e957828291602094526001845220549051908152f35b838234610218578160031936011261021857905490516001600160a01b039091168152602090f35b5080fd5b833461027657806003193601126102765761023561040e565b80546001600160a01b03198116825581906001600160a01b03167f8be0079c531659141344cd1fd0a4f28419497f9722a3daafe3b4186f6b6457e08280a380f35b80fd5b5090346100e957602090816003193601126100e55780356001600160a01b03811693908490036101b2576102ab61040e565b838552600183528085209185835493558247106103cd578580808086895af13d156103c85767ffffffffffffffff3d8181116103b557845191601f8201601f19908116603f01168301908111838210176103a2578552815287863d92013e5b1561033b5750519081527f7084f5476618d8e60b11ef0d7d3f06914655adb8793e28ff7f018d4c76d505d59190a280f35b83608492519162461bcd60e51b8352820152603a60248201527f416464726573733a20756e61626c6520746f2073656e642076616c75652c207260448201527f6563697069656e74206d617920686176652072657665727465640000000000006064820152fd5b634e487b7160e01b8a526041855260248afd5b634e487b7160e01b895260418452602489fd5b61030a565b83606492519162461bcd60e51b8352820152601d60248201527f416464726573733a20696e73756666696369656e742062616c616e63650000006044820152fd5b6000546001600160a01b0316330361042257565b606460405162461bcd60e51b815260206004820152602060248201527f4f776e61626c653a2063616c6c6572206973206e6f7420746865206f776e65726044820152fdfea26469706673582212208bc20c93a55d7152af05d04e7b0530cb4b6f2efc4a8acfc1992c23e0babade3064736f6c63430008120033",
    "linkReferences": {}
  },
  "methodIdentifiers": {
    "payments(address)": "e2982c21",
    "payout(address[],uint256[])": "c176e639",
    "refund(address,uint256)": "410085df",
    "withdrawPayments(address)": "31b3eb94"
  },
  "id": 167
}