{
  "abi": [
    {
      "type": "constructor",
      "inputs": [
        {
          "name": "_rare",
          "type": "address",
          "internalType": "address"
        },
        {
          "name": "_distributor",
          "type": "address",
          "internalType": "address"
        }
      ],
      "stateMutability": "nonpayable"
    },
    {
      "type": "receive",
      "stateMutability": "payable"
    },
    {
      "type": "function",
      "name": "claimEth",
      "inputs": [],
      "outputs": [],
      "stateMutability": "nonpayable"
    },
    {
      "type": "function",
      "name": "claimRare",
      "inputs": [],
      "outputs": [],
      "stateMutability": "nonpayable"
    },
    {
      "type": "function",
      "name": "owner",
      "inputs": [],
      "outputs": [
        {
          "name": "",
          "type": "address",
          "internalType": "address"
        }
      ],
      "stateMutability": "view"
    },
    {
      "type": "function",
      "name": "renounceOwnership",
      "inputs": [],
      "outputs": [],
      "stateMutability": "nonpayable"
    },
    {
      "type": "function",
      "name": "setCooldownEth",
      "inputs": [
        {
          "name": "_cooldown",
          "type": "uint256",
          "internalType": "uint256"
        }
      ],
      "outputs": [],
      "stateMutability": "nonpayable"
    },
    {
      "type": "function",
      "name": "setCooldownRare",
      "inputs": [
        {
          "name": "_cooldown",
          "type": "uint256",
          "internalType": "uint256"
        }
      ],
      "outputs": [],
      "stateMutability": "nonpayable"
    },
    {
      "type": "function",
      "name": "setDistributor",
      "inputs": [
        {
          "name": "_distributor",
          "type": "address",
          "internalType": "address"
        }
      ],
      "outputs": [],
      "stateMutability": "nonpayable"
    },
    {
      "type": "function",
      "name": "setEthAmount",
      "inputs": [
        {
          "name": "_amount",
          "type": "uint256",
          "internalType": "uint256"
        }
      ],
      "outputs": [],
      "stateMutability": "nonpayable"
    },
    {
      "type": "function",
      "name": "setRareAmount",
      "inputs": [
        {
          "name": "_amount",
          "type": "uint256",
          "internalType": "uint256"
        }
      ],
      "outputs": [],
      "stateMutability": "nonpayable"
    },
    {
      "type": "function",
      "name": "transferOwnership",
      "inputs": [
        {
          "name": "newOwner",
          "type": "address",
          "internalType": "address"
        }
      ],
      "outputs": [],
      "stateMutability": "nonpayable"
    },
    {
      "type": "function",
      "name": "withdrawAll",
      "inputs": [],
      "outputs": [],
      "stateMutability": "nonpayable"
    },
    {
      "type": "event",
      "name": "OwnershipTransferred",
      "inputs": [
        {
          "name": "previousOwner",
          "type": "address",
          "indexed": true,
          "internalType": "address"
        },
        {
          "name": "newOwner",
          "type": "address",
          "indexed": true,
          "internalType": "address"
        }
      ],
      "anonymous": false
    },
    {
      "type": "error",
      "name": "ChillOut",
      "inputs": []
    },
    {
      "type": "error",
      "name": "DontBeGreedy",
      "inputs": []
    },
    {
      "type": "error",
      "name": "YUNoWork",
      "inputs": []
    }
  ],
  "bytecode": {
    "object": "0x6080346100e757601f61079d38819003918201601f19168301916001600160401b038311848410176100ec5780849260409485528339810103126100e757610052602061004b83610102565b9201610102565b60008054336001600160a01b0319808316821784556040519590946001600160a01b03949093859391908416907f8be0079c531659141344cd1fd0a4f28419497f9722a3daafe3b4186f6b6457e09080a316836008541617600855620151808060035560045567016345785d8a0000600555683635c9adc5dea000006006551690600754161760075561068690816101178239f35b600080fd5b634e487b7160e01b600052604160045260246000fd5b51906001600160a01b03821682036100e75756fe6080604081815260049081361015610022575b505050361561002057600080fd5b005b600092833560e01c90816342c96d6c146104795750806360e7fa0614610457578063715018a6146103fa57806375619ab5146103b15780637b56ad661461038f578063841722821461036d578063853828b61461022f5780638da5cb5b14610207578063b7cdddcb14610196578063b87c7d43146101705763f2fde38b03610012573461016c57602036600319011261016c576001600160a01b03823581811693919290849003610168576100d5610540565b831561011657505082546001600160a01b0319811683178455167f8be0079c531659141344cd1fd0a4f28419497f9722a3daafe3b4186f6b6457e08380a380f35b906020608492519162461bcd60e51b8352820152602660248201527f4f776e61626c653a206e6577206f776e657220697320746865207a65726f206160448201526564647265737360d01b6064820152fd5b8480fd5b8280fd5b5050346101925760203660031901126101925761018b610540565b3560055580f35b5080fd5b503461016c578260031936011261016c5733835260026020528083205442106101fa576101c560035442610598565b33845260026020528184205582808080600554335af16101e3610610565b50156101ed578280f35b51635bc1837760e01b8152fd5b5163566544c960e01b8152fd5b838234610192578160031936011261019257905490516001600160a01b039091168152602090f35b503461016c578260031936011261016c5782546001600160a01b03908116330361035f578380808047335af1610263610610565b501561035157600854169080516370a0823160e01b815230848201526020938482602481875afa91821561034757908592918792610310575b50835163a9059cbb60e01b8152339181019182526020820192909252909384918290889082906040015b03925af190811561030757506102da578280f35b816102f992903d10610300575b6102f181836105bb565b8101906105f3565b5038808280f35b503d6102e7565b513d85823e3d90fd5b8381949293503d8311610340575b61032881836105bb565b8101031261033c57905184916102c661029c565b8580fd5b503d61031e565b83513d88823e3d90fd5b5051635bc1837760e01b8152fd5b50516306b6632960e41b8152fd5b50503461019257602036600319011261019257610388610540565b8035905580f35b505034610192576020366003190112610192576103aa610540565b3560035580f35b50503461019257602036600319011261019257356001600160a01b03811690819003610192576103df610540565b6bffffffffffffffffffffffff60a01b600754161760075580f35b8334610454578060031936011261045457610413610540565b80546001600160a01b03198116825581906001600160a01b03167f8be0079c531659141344cd1fd0a4f28419497f9722a3daafe3b4186f6b6457e08280a380f35b80fd5b50503461019257602036600319011261019257610472610540565b3560065580f35b849291503461016c578260031936011261016c57338352600160205281832054421061053257506020836104b26104fa94955442610598565b338087526001845284872091909155600854600654855163a9059cbb60e01b81529384019283526020830152919485926001600160a01b031691839188918391604090910190565b03925af1908115610529575061050e575080f35b6105259060203d8111610300576102f181836105bb565b5080f35b513d84823e3d90fd5b63566544c960e01b81528390fd5b6000546001600160a01b0316330361055457565b606460405162461bcd60e51b815260206004820152602060248201527f4f776e61626c653a2063616c6c6572206973206e6f7420746865206f776e65726044820152fd5b919082018092116105a557565b634e487b7160e01b600052601160045260246000fd5b90601f8019910116810190811067ffffffffffffffff8211176105dd57604052565b634e487b7160e01b600052604160045260246000fd5b9081602091031261060b5751801515810361060b5790565b600080fd5b3d1561064b573d9067ffffffffffffffff82116105dd576040519161063f601f8201601f1916602001846105bb565b82523d6000602084013e565b60609056fea2646970667358221220c79be39cffb72742664c12cbf5d499c20979ab5765d6935c60528d6cff7226a164736f6c63430008120033",
    "linkReferences": {}
  },
  "methodIdentifiers": {
    "claimEth()": "b7cdddcb",
    "claimRare()": "42c96d6c",
    "owner()": "8da5cb5b",
    "renounceOwnership()": "715018a6",
    "setCooldownEth(uint256)": "7b56ad66",
    "setCooldownRare(uint256)": "84172282",
    "setDistributor(address)": "75619ab5",
    "setEthAmount(uint256)": "b87c7d43",
    "setRareAmount(uint256)": "60e7fa06",
    "transferOwnership(address)": "f2fde38b",
    "withdrawAll()": "853828b6"
  },
  "id": 158
}