{
  "abi": [
    {
      "type": "function",
      "name": "getContractAllowListConfig",
      "inputs": [
        {
          "name": "_contractAddress",
          "type": "address",
          "internalType": "address"
        }
      ],
      "outputs": [
        {
          "name": "",
          "type": "tuple",
          "internalType": "struct IRareMinter.AllowListConfig",
          "components": [
            {
              "name": "root",
              "type": "bytes32",
              "internalType": "bytes32"
            },
            {
              "name": "endTimestamp",
              "type": "uint256",
              "internalType": "uint256"
            }
          ]
        }
      ],
      "stateMutability": "view"
    },
    {
      "type": "function",
      "name": "getContractMintLimit",
      "inputs": [
        {
          "name": "_contractAddress",
          "type": "address",
          "internalType": "address"
        }
      ],
      "outputs": [
        {
          "name": "",
          "type": "uint256",
          "internalType": "uint256"
        }
      ],
      "stateMutability": "view"
    },
    {
      "type": "function",
      "name": "getContractMintsPerAddress",
      "inputs": [
        {
          "name": "_contractAddress",
          "type": "address",
          "internalType": "address"
        },
        {
          "name": "_address",
          "type": "address",
          "internalType": "address"
        }
      ],
      "outputs": [
        {
          "name": "",
          "type": "uint256",
          "internalType": "uint256"
        }
      ],
      "stateMutability": "view"
    },
    {
      "type": "function",
      "name": "getContractSellerStakingMinimum",
      "inputs": [
        {
          "name": "_contractAddress",
          "type": "address",
          "internalType": "address"
        }
      ],
      "outputs": [
        {
          "name": "",
          "type": "tuple",
          "internalType": "struct IRareMinter.StakingMinimum",
          "components": [
            {
              "name": "amount",
              "type": "uint256",
              "internalType": "uint256"
            },
            {
              "name": "endTimestamp",
              "type": "uint256",
              "internalType": "uint256"
            }
          ]
        }
      ],
      "stateMutability": "view"
    },
    {
      "type": "function",
      "name": "getContractTxLimit",
      "inputs": [
        {
          "name": "_contractAddress",
          "type": "address",
          "internalType": "address"
        }
      ],
      "outputs": [
        {
          "name": "",
          "type": "uint256",
          "internalType": "uint256"
        }
      ],
      "stateMutability": "view"
    },
    {
      "type": "function",
      "name": "getContractTxsPerAddress",
      "inputs": [
        {
          "name": "_contractAddress",
          "type": "address",
          "internalType": "address"
        },
        {
          "name": "_address",
          "type": "address",
          "internalType": "address"
        }
      ],
      "outputs": [
        {
          "name": "",
          "type": "uint256",
          "internalType": "uint256"
        }
      ],
      "stateMutability": "view"
    },
    {
      "type": "function",
      "name": "getDirectSaleConfig",
      "inputs": [
        {
          "name": "_contractAddress",
          "type": "address",
          "internalType": "address"
        }
      ],
      "outputs": [
        {
          "name": "",
          "type": "tuple",
          "internalType": "struct IRareMinter.DirectSaleConfig",
          "components": [
            {
              "name": "seller",
              "type": "address",
              "internalType": "address"
            },
            {
              "name": "currencyAddress",
              "type": "address",
              "internalType": "address"
            },
            {
              "name": "price",
              "type": "uint256",
              "internalType": "uint256"
            },
            {
              "name": "startTime",
              "type": "uint256",
              "internalType": "uint256"
            },
            {
              "name": "maxMints",
              "type": "uint256",
              "internalType": "uint256"
            },
            {
              "name": "splitRecipients",
              "type": "address[]",
              "internalType": "address payable[]"
            },
            {
              "name": "splitRatios",
              "type": "uint8[]",
              "internalType": "uint8[]"
            }
          ]
        }
      ],
      "stateMutability": "view"
    },
    {
      "type": "function",
      "name": "initialize",
      "inputs": [
        {
          "name": "_networkBeneficiary",
          "type": "address",
          "internalType": "address"
        },
        {
          "name": "_marketplaceSettings",
          "type": "address",
          "internalType": "address"
        },
        {
          "name": "_spaceOperatorRegistry",
          "type": "address",
          "internalType": "address"
        },
        {
          "name": "_royaltyEngine",
          "type": "address",
          "internalType": "address"
        },
        {
          "name": "_payments",
          "type": "address",
          "internalType": "address"
        },
        {
          "name": "_approvedTokenRegistry",
          "type": "address",
          "internalType": "address"
        },
        {
          "name": "_stakingSettings",
          "type": "address",
          "internalType": "address"
        },
        {
          "name": "_stakingRegistry",
          "type": "address",
          "internalType": "address"
        }
      ],
      "outputs": [],
      "stateMutability": "nonpayable"
    },
    {
      "type": "function",
      "name": "mintDirectSale",
      "inputs": [
        {
          "name": "_contractAddress",
          "type": "address",
          "internalType": "address"
        },
        {
          "name": "_currencyAddress",
          "type": "address",
          "internalType": "address"
        },
        {
          "name": "_price",
          "type": "uint256",
          "internalType": "uint256"
        },
        {
          "name": "_numMints",
          "type": "uint8",
          "internalType": "uint8"
        },
        {
          "name": "_proof",
          "type": "bytes32[]",
          "internalType": "bytes32[]"
        }
      ],
      "outputs": [],
      "stateMutability": "payable"
    },
    {
      "type": "function",
      "name": "owner",
      "inputs": [],
      "outputs": [
        {
          "name": "",
          "type": "address",
          "internalType": "address"
        }
      ],
      "stateMutability": "view"
    },
    {
      "type": "function",
      "name": "prepareMintDirectSale",
      "inputs": [
        {
          "name": "_contractAddress",
          "type": "address",
          "internalType": "address"
        },
        {
          "name": "_currencyAddress",
          "type": "address",
          "internalType": "address"
        },
        {
          "name": "_price",
          "type": "uint256",
          "internalType": "uint256"
        },
        {
          "name": "_startTime",
          "type": "uint256",
          "internalType": "uint256"
        },
        {
          "name": "_maxMints",
          "type": "uint256",
          "internalType": "uint256"
        },
        {
          "name": "_splitRecipients",
          "type": "address[]",
          "internalType": "address payable[]"
        },
        {
          "name": "_splitRatios",
          "type": "uint8[]",
          "internalType": "uint8[]"
        }
      ],
      "outputs": [],
      "stateMutability": "nonpayable"
    },
    {
      "type": "function",
      "name": "proxiableUUID",
      "inputs": [],
      "outputs": [
        {
          "name": "",
          "type": "bytes32",
          "internalType": "bytes32"
        }
      ],
      "stateMutability": "view"
    },
    {
      "type": "function",
      "name": "renounceOwnership",
      "inputs": [],
      "outputs": [],
      "stateMutability": "nonpayable"
    },
    {
      "type": "function",
      "name": "setApprovedTokenRegistry",
      "inputs": [
        {
          "name": "_approvedTokenRegistry",
          "type": "address",
          "internalType": "address"
        }
      ],
      "outputs": [],
      "stateMutability": "nonpayable"
    },
    {
      "type": "function",
      "name": "setContractAllowListConfig",
      "inputs": [
        {
          "name": "_root",
          "type": "bytes32",
          "internalType": "bytes32"
        },
        {
          "name": "_endTimestamp",
          "type": "uint256",
          "internalType": "uint256"
        },
        {
          "name": "_contractAddress",
          "type": "address",
          "internalType": "address"
        }
      ],
      "outputs": [],
      "stateMutability": "nonpayable"
    },
    {
      "type": "function",
      "name": "setContractMintLimit",
      "inputs": [
        {
          "name": "_contractAddress",
          "type": "address",
          "internalType": "address"
        },
        {
          "name": "_limit",
          "type": "uint256",
          "internalType": "uint256"
        }
      ],
      "outputs": [],
      "stateMutability": "nonpayable"
    },
    {
      "type": "function",
      "name": "setContractSellerStakingMinimum",
      "inputs": [
        {
          "name": "_contractAddress",
          "type": "address",
          "internalType": "address"
        },
        {
          "name": "_minimum",
          "type": "uint256",
          "internalType": "uint256"
        },
        {
          "name": "_endTimestamp",
          "type": "uint256",
          "internalType": "uint256"
        }
      ],
      "outputs": [],
      "stateMutability": "nonpayable"
    },
    {
      "type": "function",
      "name": "setContractTxLimit",
      "inputs": [
        {
          "name": "_contractAddress",
          "type": "address",
          "internalType": "address"
        },
        {
          "name": "_limit",
          "type": "uint256",
          "internalType": "uint256"
        }
      ],
      "outputs": [],
      "stateMutability": "nonpayable"
    },
    {
      "type": "function",
      "name": "setMarketplaceSettings",
      "inputs": [
        {
          "name": "_marketplaceSettings",
          "type": "address",
          "internalType": "address"
        }
      ],
      "outputs": [],
      "stateMutability": "nonpayable"
    },
    {
      "type": "function",
      "name": "setNetworkBeneficiary",
      "inputs": [
        {
          "name": "_networkBeneficiary",
          "type": "address",
          "internalType": "address"
        }
      ],
      "outputs": [],
      "stateMutability": "nonpayable"
    },
    {
      "type": "function",
      "name": "setPayments",
      "inputs": [
        {
          "name": "_payments",
          "type": "address",
          "internalType": "address"
        }
      ],
      "outputs": [],
      "stateMutability": "nonpayable"
    },
    {
      "type": "function",
      "name": "setRoyaltyEngine",
      "inputs": [
        {
          "name": "_royaltyEngine",
          "type": "address",
          "internalType": "address"
        }
      ],
      "outputs": [],
      "stateMutability": "nonpayable"
    },
    {
      "type": "function",
      "name": "setSpaceOperatorRegistry",
      "inputs": [
        {
          "name": "_spaceOperatorRegistry",
          "type": "address",
          "internalType": "address"
        }
      ],
      "outputs": [],
      "stateMutability": "nonpayable"
    },
    {
      "type": "function",
      "name": "transferOwnership",
      "inputs": [
        {
          "name": "newOwner",
          "type": "address",
          "internalType": "address"
        }
      ],
      "outputs": [],
      "stateMutability": "nonpayable"
    },
    {
      "type": "function",
      "name": "upgradeTo",
      "inputs": [
        {
          "name": "newImplementation",
          "type": "address",
          "internalType": "address"
        }
      ],
      "outputs": [],
      "stateMutability": "nonpayable"
    },
    {
      "type": "function",
      "name": "upgradeToAndCall",
      "inputs": [
        {
          "name": "newImplementation",
          "type": "address",
          "internalType": "address"
        },
        {
          "name": "data",
          "type": "bytes",
          "internalType": "bytes"
        }
      ],
      "outputs": [],
      "stateMutability": "payable"
    },
    {
      "type": "event",
      "name": "AdminChanged",
      "inputs": [
        {
          "name": "previousAdmin",
          "type": "address",
          "indexed": false,
          "internalType": "address"
        },
        {
          "name": "newAdmin",
          "type": "address",
          "indexed": false,
          "internalType": "address"
        }
      ],
      "anonymous": false
    },
    {
      "type": "event",
      "name": "BeaconUpgraded",
      "inputs": [
        {
          "name": "beacon",
          "type": "address",
          "indexed": true,
          "internalType": "address"
        }
      ],
      "anonymous": false
    },
    {
      "type": "event",
      "name": "ContractMintLimitSet",
      "inputs": [
        {
          "name": "contractAddress",
          "type": "address",
          "indexed": true,
          "internalType": "address"
        },
        {
          "name": "limit",
          "type": "uint256",
          "indexed": false,
          "internalType": "uint256"
        }
      ],
      "anonymous": false
    },
    {
      "type": "event",
      "name": "ContractStakingMinimumSet",
      "inputs": [
        {
          "name": "contractAddress",
          "type": "address",
          "indexed": true,
          "internalType": "address"
        },
        {
          "name": "minimum",
          "type": "uint256",
          "indexed": false,
          "internalType": "uint256"
        },
        {
          "name": "endTimestamp",
          "type": "uint256",
          "indexed": false,
          "internalType": "uint256"
        }
      ],
      "anonymous": false
    },
    {
      "type": "event",
      "name": "ContractTxLimitSet",
      "inputs": [
        {
          "name": "contractAddress",
          "type": "address",
          "indexed": true,
          "internalType": "address"
        },
        {
          "name": "limit",
          "type": "uint256",
          "indexed": false,
          "internalType": "uint256"
        }
      ],
      "anonymous": false
    },
    {
      "type": "event",
      "name": "Initialized",
      "inputs": [
        {
          "name": "version",
          "type": "uint8",
          "indexed": false,
          "internalType": "uint8"
        }
      ],
      "anonymous": false
    },
    {
      "type": "event",
      "name": "MintDirectSale",
      "inputs": [
        {
          "name": "_contractAddress",
          "type": "address",
          "indexed": true,
          "internalType": "address"
        },
        {
          "name": "_seller",
          "type": "address",
          "indexed": true,
          "internalType": "address"
        },
        {
          "name": "_buyer",
          "type": "address",
          "indexed": true,
          "internalType": "address"
        },
        {
          "name": "_tokenIdStart",
          "type": "uint256",
          "indexed": false,
          "internalType": "uint256"
        },
        {
          "name": "_tokenIdEnd",
          "type": "uint256",
          "indexed": false,
          "internalType": "uint256"
        },
        {
          "name": "_currency",
          "type": "address",
          "indexed": false,
          "internalType": "address"
        },
        {
          "name": "_price",
          "type": "uint256",
          "indexed": false,
          "internalType": "uint256"
        }
      ],
      "anonymous": false
    },
    {
      "type": "event",
      "name": "OwnershipTransferred",
      "inputs": [
        {
          "name": "previousOwner",
          "type": "address",
          "indexed": true,
          "internalType": "address"
        },
        {
          "name": "newOwner",
          "type": "address",
          "indexed": true,
          "internalType": "address"
        }
      ],
      "anonymous": false
    },
    {
      "type": "event",
      "name": "PrepareMintDirectSale",
      "inputs": [
        {
          "name": "_contractAddress",
          "type": "address",
          "indexed": true,
          "internalType": "address"
        },
        {
          "name": "_currency",
          "type": "address",
          "indexed": true,
          "internalType": "address"
        },
        {
          "name": "_seller",
          "type": "address",
          "indexed": true,
          "internalType": "address"
        },
        {
          "name": "_price",
          "type": "uint256",
          "indexed": false,
          "internalType": "uint256"
        },
        {
          "name": "_startTime",
          "type": "uint256",
          "indexed": false,
          "internalType": "uint256"
        },
        {
          "name": "_maxMints",
          "type": "uint256",
          "indexed": false,
          "internalType": "uint256"
        },
        {
          "name": "splitRecipients",
          "type": "address[]",
          "indexed": false,
          "internalType": "address payable[]"
        },
        {
          "name": "splitRatios",
          "type": "uint8[]",
          "indexed": false,
          "internalType": "uint8[]"
        }
      ],
      "anonymous": false
    },
    {
      "type": "event",
      "name": "SetContractAllowListConfig",
      "inputs": [
        {
          "name": "_root",
          "type": "bytes32",
          "indexed": true,
          "internalType": "bytes32"
        },
        {
          "name": "_endTimestamp",
          "type": "uint256",
          "indexed": false,
          "internalType": "uint256"
        },
        {
          "name": "_contractAddress",
          "type": "address",
          "indexed": true,
          "internalType": "address"
        }
      ],
      "anonymous": false
    },
    {
      "type": "event",
      "name": "Upgraded",
      "inputs": [
        {
          "name": "implementation",
          "type": "address",
          "indexed": true,
          "internalType": "address"
        }
      ],
      "anonymous": false
    }
  ],
  "bytecode": {
    "object": "0x60a08060405234610031573060805261463790816100378239608051818181612e0c01528181612f3801526132d90152f35b600080fdfe608080604052600436101561001357600080fd5b600090813560e01c90816304c1ff07146137e8575080630fc635b314613696578063176ab4401461361157806321ede0321461359457806323946f1f1461355a5780632da45e8e1461350a5780633492e5a81461348d5780633659cfe6146132b45780634cf5f9101461318c5780634f1ef28614612ebd57806352d1902d14612df9578063677b198414612bed578063715018a614612b8f57806378c198981461260e5780637f358230146125915780638a29e2de146121695780638da5cb5b146121405780639890cddf146120d35780639dbef5d114611fa9578063a01fa6a914611b05578063af231a5814611a88578063ca774e6814611a38578063d647ed3c146102a8578063e4e87e3b1461020c578063f2fde38b1461017b5763fa5312c81461013f57600080fd5b34610178576020366003190112610178576020906040906001600160a01b03610166613837565b16815261010783522054604051908152f35b80fd5b503461017857602036600319011261017857610195613837565b61019d613957565b6001600160a01b038116156101b8576101b5906139af565b80f35b60405162461bcd60e51b815260206004820152602660248201527f4f776e61626c653a206e6577206f776e657220697320746865207a65726f206160448201526564647265737360d01b6064820152608490fd5b50346101785760203660031901126101785780610227613837565b61022f613957565b73__$7682c538d2a75d26dfca907f0e750789f4$__90813b156102a4576040516386e5800760e01b815260fb60048201526001600160a01b039091166024820152908290829060449082905af48015610299576102895750f35b61029290613894565b6101785780f35b6040513d84823e3d90fd5b5050fd5b5060a0366003190112610178576102bd613837565b6102c5613863565b6064359060ff82168203610e57576084356001600160401b038111610dd9576102f2903690600401613919565b91906002606554146119f35760026065556001600160a01b0385168652610103602052604080872090519390610327856138a7565b60018060a01b03815416855260018060a01b036001820154166020860152600281015460408601526003810154606086015260048101546080860152604051806005830190602082549182815201918b5260208b20908b5b8181106119d45750505090610399816006949303826138dd565b60a0870152604051910180548083529089526020808a209183918201908b905b80601f83011061183f576104cf94549181811061182b575b818110611814575b8181106117fd575b8181106117e6575b8181106117d0575b8181106117b9575b8181106117a2575b81811061178b575b818110611774575b81811061175d575b818110611746575b81811061172f575b818110611718575b818110611701575b8181106116ea575b8181106116d3575b8181106116bc575b8181106116a5575b81811061168e575b818110611677575b818110611660575b818110611649575b818110611632575b81811061161b575b818110611604575b8181106115ed575b8181106115d6575b8181106115bf575b8181106115a8575b818110611591575b81811061157a575b1061156c575b5003826138dd565b60c085015283516001600160a01b031615611509576104ed81613ccc565b916104fb60405193846138dd565b8183526020830190368360051b820111610dfd5780915b8360051b820183106114f9575050505061052d903386613f12565b8151610542906001600160a01b031685613d60565b60ff83161561149f576001600160a01b0384168552610105602052604085205415801561145d575b15611400576001600160a01b038416855261010760205260408520541580156113ba575b156113565760808201518015908115611348575b50156112dd576060820151421061128c5760408201516044350361122b576105c9816140b9565b60208201516001600160a01b03908116908216036111c0576105f060443560ff8516613cf7565b916040810151611138575b6001600160a01b0385168652610105602052604086205461110d575b6001600160a01b038516865261010760205260408620546110cd575b60405163755edd1760e01b8152336004820152926020846024818a6001600160a01b038b165af1938415610b61578794611099575b5060fc5487906001600160a01b0316803b1561109557604051635a3c652d60e01b81526001600160a01b038916600482015260248101879052600160448201529082908290606490829084905af1611081575b505060015b60ff86168110610f9f57506040820151610766575b50516001600160a01b0316926106ee9060ff1683613d37565b6000198101908111610752576040805193845260208401919091526001600160a01b03918216908301526044356060830152339316907f3bbd73fed0f94290f16db112f6b7113697c2502dd42aa0ddf8f971472523f10090608090a4600160655580f35b634e487b7160e01b86526011600452602486fd5b92909491939560018060a01b038651169260a08701519760c0880151948951865103610f3e5760fc546040516361fe24a960e11b815260048101899052908890602090839060249082906001600160a01b03165afa918215610f33578692610eff575b50604051916107d7836138c2565b60028352604036602085013760fb546001600160a01b0316806107f98561405a565b526101025460405163e286ef3360e01b81526004810187905290602090829060249082906001600160a01b03165afa908115610e64578991610ec5575b506001600160a01b03166108498561407d565b526001600160a01b0361085b8561407d565b5116610eac575b61086b8461407d565b6001600160a01b039091169052604051610884816138c2565b600281526040366020830137610101546040516303fdde1160e21b8152600481018d90526001600160a01b0390911690602081602481855afa908115610ea1578a91610e6f575b506108d58361405a565b5260208c60246040518094819363470d6ed960e11b835260048301525afa908115610e64579085918a91610e28575b509261091a936109138461407d565b528d61448a565b60fc54604051631446f21360e21b81526001600160a01b038781166004830152602482018a9052909160209183916044918391165afa908115610b61578791610e09575b50610c08576040519261097084613879565b60018452602036818601376040519261098884613879565b60018452602036818601376001600160a01b03906109a59061405a565b51166109b08461405a565b5260fd54604051635dc22eff60e01b81526004810183905290602090829060249082906001600160a01b03165afa908115610bfd578891610bce575b5015610b6c5760fd54604051632260494f60e01b81526004810192909252602090829060249082906001600160a01b03165afa908115610b61578a610a54610a759695946064610a4d60ff8297610a5a978f91610b32575b50168095613cf7565b0490613d53565b9b613cf7565b04610a648361405a565b52610a6e8261405a565b518a61448a565b885193610a8185613ccc565b94610a8f60405196876138dd565b808652610a9e601f1991613ccc565b01366020870137839784985b8b518a1015610b0e57610b02610b08916064610afb60ff610af38f8f8f908f908388610ae6610aed9389610ade858961408d565b511690613cf7565b049261408d565b5261408d565b51168d613cf7565b0490613d37565b99613d44565b98610aaa565b610b2b9399506106ee9692985060ff959b9197509993998761448a565b91506106d5565b610b54915060203d602011610b5a575b610b4c81836138dd565b810190614471565b38610a44565b503d610b42565b6040513d89823e3d90fd5b5060fc5460405163b28a7bad60e01b81526001600160a01b038781166004830152909160209183916024918391165afa908115610b61578a610a54610bc99695946064610a4d60ff8297610a5a978f91610b325750168095613cf7565b610a75565b610bf0915060203d602011610bf6575b610be881836138dd565b8101906140a1565b386109ec565b503d610bde565b6040513d8a823e3d90fd5b5050509794969391809693918160018060a01b0360fe541660648b6040519b8c938492637a99dc0160e11b845260018060a01b038816600485015289602485015260448401525af1998a15610299578298839b610cb4575b50829883995b8c518b1015610c9457610c88610c8e91610c818f8e9061408d565b5190613d37565b9a613d44565b99610c66565b989b919395979a610bc99395979a5089610cad91613d53565b988a61448a565b985099503d978883823e610cc889826138dd565b6040818a81010312610e055780516001600160401b038111610e0157810190898101601f83011215610e0157815191610d0083613ccc565b92610d0e60405194856138dd565b80845260208401918c840160208360051b83010111610dd55760208101925b60208360051b8301018410610ddd57505050506020810151996001600160401b038b11610dd957808201601f8c8401011215610dd9578a82015191610d7183613ccc565b9b610d7f6040519d8e6138dd565b838d5260208d0192820160208560051b838501010111610dd5579190602083820101925b60208560051b82840101018410610dc1575050505050979938610c60565b602080809486518152019401939250610da3565b8680fd5b8480fd5b83516001600160a01b0381168103610dfd57815260209384019301610d2d565b8880fd5b8380fd5b8280fd5b610e22915060203d602011610bf657610be881836138dd565b3861095e565b9150506020813d602011610e5c575b81610e44602093836138dd565b81010312610e575751849061091a610904565b600080fd5b3d9150610e37565b6040513d8b823e3d90fd5b90506020813d602011610e99575b81610e8a602093836138dd565b81010312610e575751386108cb565b3d9150610e7d565b6040513d8c823e3d90fd5b506001600160a01b03610ebe8461407d565b5116610862565b90506020813d602011610ef7575b81610ee0602093836138dd565b81010312610dfd57610ef190613c58565b38610836565b3d9150610ed3565b9091506020813d602011610f2b575b81610f1b602093836138dd565b81010312610e57575190386107c9565b3d9150610f0e565b6040513d88823e3d90fd5b60405162461bcd60e51b815260206004820152603360248201527f4e756d626572206f662073706c69742061646472657373657320616e642072616044820152723a34b7b99036bab9ba1031329032b8bab0b61760691b6064820152608490fd5b60405163755edd1760e01b81523360048201526020816024818c6001600160a01b038d165af18015610e6457611056575b5060fc5488906001600160a01b0316610fe98388613d37565b813b15610e0557604051635a3c652d60e01b81526001600160a01b038b1660048201526024810191909152600160448201529082908290606490829084905af161103e575b505061103990613d44565b6106c0565b61104790613894565b61105257873861102e565b8780fd5b602090813d831161107a575b61106c81836138dd565b81010312610e575738610fd0565b503d611062565b61108a90613894565b610dd55786386106bb565b5080fd5b9093506020813d6020116110c5575b816110b5602093836138dd565b81010312610e5757519238610668565b3d91506110a8565b6101086020526040862033600052602052604060002080546001810181116110f9576001019055610633565b634e487b7160e01b88526011600452602488fd5b6101066020526040862033600052602052604060002061113160ff86168254613d37565b9055610617565b60fc546040516361fe24a960e11b81526004810185905290602090829060249082906001600160a01b03165afa908115610b6157879161118c575b506111816111879185613d37565b8361417a565b6105fb565b90506020813d6020116111b8575b816111a7602093836138dd565b81010312610e575751611181611173565b3d915061119a565b60405162461bcd60e51b815260206004820152603960248201527f6d696e7444697265637453616c653a3a43757272656e637920646f6573206e6f60448201527f74206d617463682072657175697265642063757272656e6379000000000000006064820152608490fd5b60405162461bcd60e51b815260206004820152603360248201527f6d696e7444697265637453616c653a3a507269636520646f6573206e6f74206d6044820152726174636820726571756972656420707269636560681b6064820152608490fd5b60405162461bcd60e51b8152602060048201526024808201527f6d696e7444697265637453616c653a3a53616c6520686173206e6f74207374616044820152631c9d195960e21b6064820152608490fd5b60405162461bcd60e51b815260206004820152603a60248201527f6d696e7444697265637453616c653a3a4d696e7473206d757374206265206c6560448201527f7373207468616e206d61784d696e7420696620656e61626c65640000000000006064820152608490fd5b905060ff84161115386105a2565b60405162461bcd60e51b815260206004820152603660248201527f6d696e7444697265637453616c653a3a4578636565646564207472616e73616360448201527574696f6e206c696d697420666f72206164647265737360501b6064820152608490fd5b506101086020526040852033600052602052604060002054600181018111610752576001600160a01b03851686526101076020526040862054600191909101111561058e565b60405162461bcd60e51b815260206004820152602f60248201527f6d696e7444697265637453616c653a3a4578636565646564206d696e74206c6960448201526e6d697420666f72206164647265737360881b6064820152608490fd5b50610106602052604085203360005260205261148160ff8416604060002054613d37565b6001600160a01b03851686526101056020526040862054101561056a565b60405162461bcd60e51b815260206004820152602c60248201527f6d696e7444697265637453616c653a3a4d696e7473206d75737420626520677260448201526b06561746572207468616e20360a41b6064820152608490fd5b8235815260209283019201610512565b60405162461bcd60e51b815260206004820152603560248201527f6d696e7444697265637453616c653a3a436f6e7472616374206e6f7420707265604482015274706172656420666f72206469726563742073616c6560581b6064820152608490fd5b60f81c8152602001386104c7565b92602060019160ff8560f01c1681520193016104c1565b92602060019160ff8560e81c1681520193016104b9565b92602060019160ff8560e01c1681520193016104b1565b92602060019160ff8560d81c1681520193016104a9565b92602060019160ff8560d01c1681520193016104a1565b92602060019160ff8560c81c168152019301610499565b92602060019160ff8560c01c168152019301610491565b92602060019160ff8560b81c168152019301610489565b92602060019160ff8560b01c168152019301610481565b92602060019160ff8560a81c168152019301610479565b92602060019160ff8560a01c168152019301610471565b92602060019160ff8560981c168152019301610469565b92602060019160ff8560901c168152019301610461565b92602060019160ff8560881c168152019301610459565b92602060019160ff8560801c168152019301610451565b92602060019160ff8560781c168152019301610449565b92602060019160ff8560701c168152019301610441565b92602060019160ff8560681c168152019301610439565b92602060019160ff8560601c168152019301610431565b92602060019160ff8560581c168152019301610429565b92602060019160ff8560501c168152019301610421565b92602060019160ff8560481c168152019301610419565b92602060019160ff8560401c168152019301610411565b92602060019160ff8560381c168152019301610409565b92602060019160ff8560301c168152019301610401565b92602060019160ff8560281c1681520193016103f9565b92602060019160ff85831c1681520193016103f1565b92602060019160ff8560181c1681520193016103e9565b92602060019160ff8560101c1681520193016103e1565b92602060019160ff8560081c1681520193016103d9565b92602060019160ff851681520193016103d1565b916020919350610400600191865460ff8116825260ff8160081c168583015260ff8160101c16604083015260ff8160181c16606083015260ff81861c16608083015260ff8160281c1660a083015260ff8160c0828260301c1681860152828260381c1660e0860152828260401c16610100860152828260481c16610120860152828260501c16610140860152828260581c16610160860152828260601c16610180860152828260681c166101a0860152828260701c166101c0860152828260781c166101e0860152828260801c16610200860152828260881c16610220860152828260901c16610240860152828260981c16610260860152828260a01c16610280860152828260a81c166102a0860152828260b01c166102c0860152828260b81c166102e08601521c1661030083015260ff8160c81c1661032083015260ff8160d01c1661034083015260ff8160d81c1661036083015260ff8160e01c1661038083015260ff8160e81c166103a083015260ff8160f01c166103c083015260f81c6103e08201520194019201849293916103b9565b82546001600160a01b031684526020909301926001928301920161037f565b60405162461bcd60e51b815260206004820152601f60248201527f5265656e7472616e637947756172643a207265656e7472616e742063616c6c006044820152606490fd5b503461017857604036600319011261017857611a52613837565b6040611a5c613863565b9260018060a01b0380931681526101066020522091166000526020526020604060002054604051908152f35b50346101785760203660031901126101785780611aa3613837565b611aab613957565b73__$7682c538d2a75d26dfca907f0e750789f4$__90813b156102a45760405163c70c56c760e01b815260fb60048201526001600160a01b039091166024820152908290829060449082905af48015610299576102895750f35b503461017857602036600319011261017857611b1f613837565b606060c0604051611b2f816138a7565b84815284602082015284604082015284838201528460808201528260a0820152015260018060a01b03168152610103602052604081209060405191611b73836138a7565b60018060a01b03815416835260018060a01b0360018201541660208401526002810154604084015260038101546060840152600481015460808401526005810160405190816020825491828152019185526020852090855b818110611f8a5750505090611be5816006949303826138dd565b60a085015260405191018054808352908352602080842091839182019085905b80601f830110611de257611cfb94549181811061182b57818110611814578181106117fd578181106117e6578181106117d0578181106117b9578181106117a25781811061178b578181106117745781811061175d578181106117465781811061172f5781811061171857818110611701578181106116ea578181106116d3578181106116bc578181106116a55781811061168e578181106116775781811061166057818110611649578181106116325781811061161b57818110611604578181106115ed578181106115d6578181106115bf578181106115a8578181106115915781811061157a571061156c575003826138dd565b60c08301526040519182916020835261010083019160018060a01b03815116602085015260018060a01b0360208201511660408501526040810151606085015260608101516080850152608081015160a085015260a08101519260e060c0860152835180915260206101208601940190835b818110611dc05750505060c0015191601f198482030160e0850152602080845192838152019301915b818110611da4575050500390f35b825160ff16845285945060209384019390920191600101611d96565b82516001600160a01b0316865287965060209586019590920191600101611d6d565b916020919350610400600191865460ff8116825260ff8160081c168583015260ff8160101c16604083015260ff8160181c16606083015260ff81861c16608083015260ff8160281c1660a083015260ff8160301c1660c083015260ff8160381c1660e083015260ff8160401c1661010083015260ff8160481c1661012083015260ff8160501c1661014083015260ff8160581c1661016083015260ff8160601c1661018083015260ff8160681c166101a083015260ff8160701c166101c083015260ff8160781c166101e083015260ff8160801c1661020083015260ff8160881c1661022083015260ff8160901c1661024083015260ff8160981c1661026083015260ff8160a01c1661028083015260ff8160a81c166102a083015260ff8160b01c166102c083015260ff8160b81c166102e083015260ff8160c01c1661030083015260ff8160c81c1661032083015260ff8160d01c1661034083015260ff8160d81c1661036083015260ff8160e01c1661038083015260ff8160e81c166103a083015260ff8160f01c166103c083015260f81c6103e0820152019401920184929391611c05565b82546001600160a01b0316845260209093019260019283019201611bcb565b503461017857604036600319011261017857611fc3613837565b604051638da5cb5b60e01b81526001600160a01b039182169160209160243591908381600481885afa908115610f3357869161209a575b5016330361203d57907f5c8158ce792c8da34f9a8974acdb882c2c9cecc225c4ccf3c4a119aa2c726070918385526101078252806040862055604051908152a280f35b60405162461bcd60e51b815260048101839052602f60248201527f736574436f6e747261637454784c696d69743a3a4f6e6c7920636f6e7472616360448201526e1d081bdddb995c8818d85b881cd95d608a1b6064820152608490fd5b90508381813d83116120cc575b6120b181836138dd565b810103126120c8576120c290613c58565b38611ffa565b8580fd5b503d6120a7565b503461017857602036600319011261017857604080916120f1613837565b60006020845161210081613879565b82815201526001600160a01b0316815261010960205220815161212281613879565b60206001835493848452015491019081528251918252516020820152f35b50346101785780600319360112610178576033546040516001600160a01b039091168152602090f35b50346101785761010036600319011261017857612184613837565b61218c613863565b9061219561384d565b6064356001600160a01b0381168103610e57576084356001600160a01b0381168103610e575760a435906001600160a01b0382168203610e575760c435926001600160a01b0384168403610e575760e435946001600160a01b0386168603610e575788549760ff8960081c16159889809a612584575b801561256d575b156125115760ff1981166001178b5589612500575b506040516323e95fa960e01b81526001600160a01b039889166004820152908816602482015290871660448201529086166064820152908516608482015290841660a482015290831660c4820152911660e4820152610100816101048173__$7682c538d2a75d26dfca907f0e750789f4$__5af49081156124f55783916123c9575b5060018060a01b03815116906001600160601b0360a01b918260fb54161760fb5560018060a01b036020820151168260fc54161760fc5560018060a01b036040820151168260fd54161760fd5560018060a01b036060820151168260fe54161760fe5560018060a01b036080820151168260ff54161760ff5560018060a01b0360a082015116826101005416176101005560018060a01b0360c082015116610101908382541617905560e060018060a01b03910151166101029182541617905561238260ff835460081c1661237d81613c6c565b613c6c565b61238b336139af565b6123925780f35b61ff001981541681557f7f26b83ff96e1f2b6a682f133852f6798a09c465da95921460cefb3847402498602060405160018152a180f35b9050610100813d610100116124ed575b816123e761010093836138dd565b81010312610e05576040519061010082018281106001600160401b038211176124d75760405261241681613c58565b825260208101516001600160a01b0381168103610dd957602083015260408101516001600160a01b0381168103610dd957604083015260608101516001600160a01b0381168103610dd957606083015260808101516001600160a01b0381168103610dd957608083015260a08101516001600160a01b0381168103610dd95760a083015260c0810151906001600160a01b0382168203610dd95760c083019190915260e001516001600160a01b0381168103610e015760e0820152386122a9565b634e487b7160e01b600052604160045260246000fd5b3d91506123d9565b6040513d85823e3d90fd5b61ffff1916610101178a5538612227565b60405162461bcd60e51b815260206004820152602e60248201527f496e697469616c697a61626c653a20636f6e747261637420697320616c72656160448201526d191e481a5b9a5d1a585b1a5e995960921b6064820152608490fd5b50303b1580156122125750600160ff821614612212565b50600160ff82161061220b565b503461017857602036600319011261017857806125ac613837565b6125b4613957565b73__$7682c538d2a75d26dfca907f0e750789f4$__90813b156102a457604051630cf1420760e21b815260fb60048201526001600160a01b039091166024820152908290829060449082905af48015610299576102895750f35b50346101785760e036600319011261017857612628613837565b612630613863565b9060a4356001600160401b038111610e0157612650903690600401613919565b60c4356001600160401b0381116120c85761266f903690600401613919565b604051638da5cb5b60e01b8152919390916020816004816001600160a01b038a165afa908115610bfd578891612b55575b50336001600160a01b0390911603612ade576126bb866140b9565b6040516126c7816138a7565b3381526001600160a01b03871660208201526044356040820152606435606082015260843560808201526126fa84613ccc565b61270760405191826138dd565b84815260208101368660051b850111612ac25783905b8660051b85018210612ac657505060a082015261273983613ccc565b61274660405191826138dd565b83815260208101368560051b880111612ac25786905b8560051b88018210612aaa57505060c082015260018060a01b0386168852610103602052604088209060018060a01b038151166001600160601b0360a01b8354161782556001820160018060a01b036020830151166001600160601b0360a01b82541617905560408101516002830155606081015160038301556080810151600483015560a08101518051906001600160401b038211612a9657600160401b8211612a96576020908b600586015484600588015584818110612a78575b50505001600584018b5260208b208b5b838110612a5b575050505060c00151908151906001600160401b038211612a4757600160401b8211612a47576006602091019283548385558084106129fd575b50019189526020892090895b8160051c81106129be5750601f198116810380612971575b5050505091604051928160a0850160443586526064356020870152608435604087015260a060608701525260c084019091885b818110612945575050602091508381036080850152828152019290865b818110612923575033956001600160a01b039081169516937f36de0d2c8eec9296de665d70b6b6e55d8c29bfa7a36e0178e805ef54725d9f5c939081900392509050a480f35b90919360208060019260ff61293789613949565b1681520195019291016128dd565b909160019060209081906001600160a01b0361296088613ce3565b1681520194019101929190926128c0565b928a938b5b81811061298e5750505060051c01553880808061288d565b90919460206129b46001928460ff8a5116919060ff809160031b9316831b921b19161790565b9601929101612976565b8a8b5b602081106129d6575083820155600101612875565b855190959160019160209160ff60038a901b81811b199092169216901b17920195016129c1565b612a2790858d52838d20601f80870160051c82019281881680612a2d575b500160051c0190613d20565b38612869565b60001990818601918254918a0360031b1c16905538612a1b565b634e487b7160e01b8a52604160045260248afd5b82516001600160a01b031681830155602090920191600101612829565b84612a8e9360058a018152209182019101613d20565b8b3884612819565b634e487b7160e01b8b52604160045260248bfd5b60208091612ab784613949565b81520191019061275c565b8980fd5b60208091612ad384613ce3565b81520191019061271d565b60a460405162461bcd60e51b815260206004820152604460248201527f707265706172654d696e7444697265637453616c653a3a4f6e6c79206d696e7460448201527f20636f6e7472616374206f776e65722063616e207072657061726520746865206064820152631b5a5b9d60e21b6084820152fd5b90506020813d602011612b87575b81612b70602093836138dd565b8101031261105257612b8190613c58565b386126a0565b3d9150612b63565b5034610178578060031936011261017857612ba8613957565b603380546001600160a01b031981169091556000906001600160a01b03167f8be0079c531659141344cd1fd0a4f28419497f9722a3daafe3b4186f6b6457e08280a380f35b5034610178576060366003190112610178576001600160a01b0380612c10613837565b1660405191638da5cb5b60e01b83526020928381600481865afa8015612d4b5782918691612dc1575b50163303612d5657602483826101025416604051928380926381d0606b60e01b82523360048301525afa908115612d4b578591612d16575b501615612cab5760019061010960405193612c8b85613879565b602435855280850192604435845286525260408420925183555191015580f35b60405162461bcd60e51b815260048101839052603c60248201527f736574436f6e747261637453656c6c65725374616b696e674d696e696d756d3a60448201527f3a53656c6c657220646f6573206e6f742068617665206120706f6f6c000000006064820152608490fd5b90508381813d8311612d44575b612d2d81836138dd565b81010312610dd957612d3e90613c58565b38612c71565b503d612d23565b6040513d87823e3d90fd5b60405162461bcd60e51b815260048101849052603c60248201527f736574436f6e747261637453656c6c65725374616b696e674d696e696d756d3a60448201527f3a4f6e6c7920636f6e7472616374206f776e65722063616e20736574000000006064820152608490fd5b809250858092503d8311612df2575b612dda81836138dd565b81010312610dd957612dec8291613c58565b38612c39565b503d612dd0565b50346101785780600319360112610178577f00000000000000000000000000000000000000000000000000000000000000006001600160a01b03163003612e525760206040516000805160206145e28339815191528152f35b60405162461bcd60e51b815260206004820152603860248201527f555550535570677261646561626c653a206d757374206e6f742062652063616c60448201527f6c6564207468726f7567682064656c656761746563616c6c00000000000000006064820152608490fd5b50604036600319011261017857612ed2613837565b602435906001600160401b038211610e055736602383011215610e05578160040135612efd816138fe565b90612f0b60405192836138dd565b80825284602094858401923660248284010111610e05578060248893018537840101526001600160a01b037f0000000000000000000000000000000000000000000000000000000000000000811690612f66308314156139f8565b612f836000805160206145e2833981519152928284541614613a59565b612f8b613957565b7f4910fdfa16fed3260ed0e7147f7cc6da11a60208b5b9406d12a635614ffd91435460ff1615612fc357505050506101b59150613aba565b84939416906040516352d1902d60e01b81528681600481865afa6000918161315d575b506130475760405162461bcd60e51b815260048101889052602e60248201527f45524331393637557067726164653a206e657720696d706c656d656e7461746960448201526d6f6e206973206e6f74205555505360901b6064820152608490fd5b959495036131065761305883613aba565b7fbc7cd75a20ee27fd9adebab32041f755214dbc6bffa90cc0225b39da2e5c2d3b600080a28351158015906130fe575b613094575b5050505080f35b600080916130f4957f416464726573733a206c6f772d6c6576656c2064656c65676174652063616c6c604051966130ca886138c2565b60278852870152660819985a5b195960ca1b60408701525190845af46130ee613b4a565b91613b7a565b503880808061308d565b506001613088565b60405162461bcd60e51b815260048101859052602960248201527f45524331393637557067726164653a20756e737570706f727465642070726f786044820152681a58589b195555525160ba1b6064820152608490fd5b90918882813d8311613185575b61317481836138dd565b810103126101785750519038612fe6565b503d61316a565b5034610178576040366003190112610178576131a6613837565b604051638da5cb5b60e01b81526001600160a01b039182169160209160243591908381600481885afa908115610f3357869161327f575b5016330361322057907fa9d9d6bd10e1caf4891001b6ccccdad5384a544c63cc903d40182c0a5a139cd9918385526101058252806040862055604051908152a280f35b60405162461bcd60e51b815260048101839052603160248201527f736574436f6e74726163744d696e744c696d69743a3a4f6e6c7920636f6e74726044820152701858dd081bdddb995c8818d85b881cd95d607a1b6064820152608490fd5b90508381813d83116132ad575b61329681836138dd565b810103126120c8576132a790613c58565b386131dd565b503d61328c565b503461017857602080600319360112611095576132cf613837565b6001600160a01b037f0000000000000000000000000000000000000000000000000000000000000000811690613307308314156139f8565b6133246000805160206145e2833981519152928284541614613a59565b61332c613957565b60405191848301918383106001600160401b038411176124d7578260405286845260ff7f4910fdfa16fed3260ed0e7147f7cc6da11a60208b5b9406d12a635614ffd9143541660001461338757505050506101b59150613aba565b84939416906040516352d1902d60e01b81528681600481865afa6000918161345e575b5061340b5760405162461bcd60e51b815260048101889052602e60248201527f45524331393637557067726164653a206e657720696d706c656d656e7461746960448201526d6f6e206973206e6f74205555505360901b6064820152608490fd5b959495036131065761341c83613aba565b7fbc7cd75a20ee27fd9adebab32041f755214dbc6bffa90cc0225b39da2e5c2d3b600080a283511580159061345657613094575050505080f35b506000613088565b90918882813d8311613486575b61347581836138dd565b8101031261017857505190386133aa565b503d61346b565b503461017857602036600319011261017857806134a8613837565b6134b0613957565b73__$7682c538d2a75d26dfca907f0e750789f4$__90813b156102a45760405163dec30e3360e01b815260fb60048201526001600160a01b039091166024820152908290829060449082905af48015610299576102895750f35b503461017857604036600319011261017857613524613837565b604061352e613863565b9260018060a01b0380931681526101086020522091166000526020526020604060002054604051908152f35b5034610178576020366003190112610178576020906040906001600160a01b03613582613837565b16815261010583522054604051908152f35b503461017857602036600319011261017857806135af613837565b6135b7613957565b73__$7682c538d2a75d26dfca907f0e750789f4$__90813b156102a45760405163ebda042b60e01b815260fb60048201526001600160a01b039091166024820152908290829060449082905af48015610299576102895750f35b50346101785760203660031901126101785761362b613837565b613633613957565b8173__$7682c538d2a75d26dfca907f0e750789f4$__91823b1561109557604051632c55921b60e01b815260fb60048201526001600160a01b03909116602482015291829060449082905af480156102995761368d575080f35b6101b590613894565b5034610178576060366003190112610178576024356004356001600160a01b03806136bf61384d565b169260405191638da5cb5b60e01b83526020928381600481895afa908115610b615787916137b3575b5016330361374857907fff2ce9a528a62cad638cc9f5bccd36a62ecfa9aa0b1ab82c98957cb3498b4b679160405161371f81613879565b84815260018382018381528789526101048552604089209251835551910155604051908152a380f35b60405162461bcd60e51b815260048101839052603760248201527f736574436f6e7472616374416c6c6f774c697374436f6e6669673a3a4f6e6c7960448201527f20636f6e7472616374206f776e65722063616e207365740000000000000000006064820152608490fd5b90508381813d83116137e1575b6137ca81836138dd565b81010312610dd5576137db90613c58565b386136e8565b503d6137c0565b90503461109557602036600319011261109557604082819281602061380b613837565b9261381581613879565b82815201526001600160a01b0316815261010460205220815161212281613879565b600435906001600160a01b0382168203610e5757565b604435906001600160a01b0382168203610e5757565b602435906001600160a01b0382168203610e5757565b604081019081106001600160401b038211176124d757604052565b6001600160401b0381116124d757604052565b60e081019081106001600160401b038211176124d757604052565b606081019081106001600160401b038211176124d757604052565b90601f801991011681019081106001600160401b038211176124d757604052565b6001600160401b0381116124d757601f01601f191660200190565b9181601f84011215610e57578235916001600160401b038311610e57576020808501948460051b010111610e5757565b359060ff82168203610e5757565b6033546001600160a01b0316330361396b57565b606460405162461bcd60e51b815260206004820152602060248201527f4f776e61626c653a2063616c6c6572206973206e6f7420746865206f776e65726044820152fd5b603380546001600160a01b039283166001600160a01b0319821681179092559091167f8be0079c531659141344cd1fd0a4f28419497f9722a3daafe3b4186f6b6457e0600080a3565b156139ff57565b60405162461bcd60e51b815260206004820152602c60248201527f46756e6374696f6e206d7573742062652063616c6c6564207468726f7567682060448201526b19195b1959d85d1958d85b1b60a21b6064820152608490fd5b15613a6057565b60405162461bcd60e51b815260206004820152602c60248201527f46756e6374696f6e206d7573742062652063616c6c6564207468726f7567682060448201526b6163746976652070726f787960a01b6064820152608490fd5b803b15613aef576000805160206145e283398151915280546001600160a01b0319166001600160a01b03909216919091179055565b60405162461bcd60e51b815260206004820152602d60248201527f455243313936373a206e657720696d706c656d656e746174696f6e206973206e60448201526c1bdd08184818dbdb9d1c9858dd609a1b6064820152608490fd5b3d15613b75573d90613b5b826138fe565b91613b6960405193846138dd565b82523d6000602084013e565b606090565b91929015613bdc5750815115613b8e575090565b3b15613b975790565b60405162461bcd60e51b815260206004820152601d60248201527f416464726573733a2063616c6c20746f206e6f6e2d636f6e74726163740000006044820152606490fd5b825190915015613bef5750805190602001fd5b60405162461bcd60e51b8152908190613c0b9060048301613c0f565b0390fd5b6020808252825181830181905290939260005b828110613c4457505060409293506000838284010152601f8019910116010190565b818101860151848201604001528501613c22565b51906001600160a01b0382168203610e5757565b15613c7357565b60405162461bcd60e51b815260206004820152602b60248201527f496e697469616c697a61626c653a20636f6e7472616374206973206e6f74206960448201526a6e697469616c697a696e6760a81b6064820152608490fd5b6001600160401b0381116124d75760051b60200190565b35906001600160a01b0382168203610e5757565b81810292918115918404141715613d0a57565b634e487b7160e01b600052601160045260246000fd5b818110613d2b575050565b60008155600101613d20565b91908201809211613d0a57565b6000198114613d0a5760010190565b91908203918211613d0a57565b6001600160a01b03908116600081815261010960208181526040808420805492979196959215613f085760010154421015613eff576101025486516381d0606b60e01b8152918616600483015287908290602490829089165afa908115613ef5579087918591613ebf575b506024875180978193630e67667b60e21b8352336004840152165afa938415613eb55790839291869495613e7e575b5082528552205411613e0a575050565b60a49250519062461bcd60e51b82526004820152604260248201527f5f656e666f726365436f6e747261637453656c6c65725374616b696e674d696e60448201527f696d756d3a3a41646472657373206e6f74206f6e207374616b656420656e6f756064820152610ced60f31b6084820152fd5b878092965081939495503d8311613eae575b613e9a81836138dd565b81010312610e055790849291519338613dfa565b503d613e90565b85513d85823e3d90fd5b82819392503d8311613eee575b613ed681836138dd565b81010312610e0157613ee88791613c58565b38613dcb565b503d613ecc565b86513d86823e3d90fd5b50505050505050565b5050505050505050565b6001600160a01b03166000908152610104602090815260408083208054929591949293928415613eff57600180920154421015613eff57908092918651888101916001600160601b03199060601b16825260148152613f7081613879565b5190209380935b613fe3575b5050505003613f89575050565b60849250519062461bcd60e51b82526004820152602e60248201527f5f656e666f726365416c6c6f774c69737465643a3a41646472657373206e6f7460448201526d081bdb88185b1b1bddc81b1a5cdd60921b6064820152fd5b9091929383518510156140545761402990613ffe868661408d565b51808211614032578851908a82019283528982015288815261401f816138c2565b5190205b94613d44565b92919081613f77565b908851908a82019283528982015288815261404c816138c2565b519020614023565b93613f7c565b8051156140675760200190565b634e487b7160e01b600052603260045260246000fd5b8051600110156140675760400190565b80518210156140675760209160051b010190565b90816020910312610e5757518015158103610e575790565b6001600160a01b039081168015918215614114575b5050156140d757565b60405162461bcd60e51b81526020600482015260156024820152744e6f7420617070726f7665642063757272656e637960581b6044820152606490fd5b6020919250610100541691602460405180948193632d5ad3d560e01b835260048301525afa90811561416e57600091614150575b5038806140ce565b614168915060203d8111610bf657610be881836138dd565b38614148565b6040513d6000823e3d90fd5b6001600160a01b031690811561434c57346142f65760409081516370a0823160e01b938482523060048301526020948583602481855afa9283156142eb576000936142bc575b5084516323b872dd60e01b87820152336024820152306044820152606480820186905281529060a082016001600160401b038111838210176124d757879261420a91885284614391565b602486518094819382523060048301525afa9081156142b157600091614282575b509061423691613d53565b0361423f575050565b60649250519062461bcd60e51b82526004820152601c60248201527f6e6f7420656e6f75676820746f6b656e73207472616e736665726564000000006044820152fd5b908582813d83116142aa575b61429881836138dd565b8101031261017857505161423661422b565b503d61428e565b84513d6000823e3d90fd5b90928682813d83116142e4575b6142d381836138dd565b8101031261017857505191386141c0565b503d6142c9565b85513d6000823e3d90fd5b60405162461bcd60e51b815260206004820152602860248201527f6d73672e76616c75652073686f756c642062652030207768656e206e6f7420756044820152670e6d2dcce40cae8d60c31b6064820152608490fd5b9050340361435657565b60405162461bcd60e51b81526020600482015260136024820152721b9bdd08195b9bdd59da08195d1a081cd95b9d606a1b6044820152606490fd5b6040516143e9916001600160a01b03166143aa82613879565b6000806020958685527f5361666545524332303a206c6f772d6c6576656c2063616c6c206661696c656487860152868151910182855af16130ee613b4a565b805190828215928315614459575b505050156144025750565b6084906040519062461bcd60e51b82526004820152602a60248201527f5361666545524332303a204552433230206f7065726174696f6e20646964206e6044820152691bdd081cdd58d8d9595960b21b6064820152fd5b61446993508201810191016140a1565b3882816143f7565b90816020910312610e57575160ff81168103610e575790565b6001600160a01b03929083168061456157508260ff541693604051916020908184019563c176e63960e01b87526064850160406024870152825180915283608487019301916000905b828210614548575050505083810360231901604485015282518082529082019282019160005b8281106145345750505050918161451f600096949387969403601f1981018352826138dd565b51925af161452b613b4a565b9015613bef5750565b8351855293810193928101926001016144f9565b83518116855293850193928501926001909101906144d3565b92915060009493945b81518110156145d957806145cf846145856145d4948661408d565b51166145c9614594848b61408d565b5160405163a9059cbb60e01b60208201526001600160a01b0393909316602484015260448084019190915282526064826138dd565b86614391565b613d44565b61456a565b50505050905056fe360894a13ba1a3210667c828492db98dca3e2076cc3735a920a3ca505d382bbca2646970667358221220d7dae0680aef5d43291cd4e1d9ddd814f89a538e82e7a3a46903af95e4bdf86d64736f6c63430008120033",
    "linkReferences": {
      "src/utils/structs/MarketConfig.sol": {
        "MarketConfig": [
          {
            "start": 616,
            "length": 20
          },
          {
            "start": 6884,
            "length": 20
          },
          {
            "start": 8893,
            "length": 20
          },
          {
            "start": 9709,
            "length": 20
          },
          {
            "start": 13545,
            "length": 20
          },
          {
            "start": 13808,
            "length": 20
          },
          {
            "start": 13933,
            "length": 20
          }
        ]
      }
    }
  },
  "methodIdentifiers": {
    "getContractAllowListConfig(address)": "04c1ff07",
    "getContractMintLimit(address)": "23946f1f",
    "getContractMintsPerAddress(address,address)": "ca774e68",
    "getContractSellerStakingMinimum(address)": "9890cddf",
    "getContractTxLimit(address)": "fa5312c8",
    "getContractTxsPerAddress(address,address)": "2da45e8e",
    "getDirectSaleConfig(address)": "a01fa6a9",
    "initialize(address,address,address,address,address,address,address,address)": "8a29e2de",
    "mintDirectSale(address,address,uint256,uint8,bytes32[])": "d647ed3c",
    "owner()": "8da5cb5b",
    "prepareMintDirectSale(address,address,uint256,uint256,uint256,address[],uint8[])": "78c19898",
    "proxiableUUID()": "52d1902d",
    "renounceOwnership()": "715018a6",
    "setApprovedTokenRegistry(address)": "e4e87e3b",
    "setContractAllowListConfig(bytes32,uint256,address)": "0fc635b3",
    "setContractMintLimit(address,uint256)": "4cf5f910",
    "setContractSellerStakingMinimum(address,uint256,uint256)": "677b1984",
    "setContractTxLimit(address,uint256)": "9dbef5d1",
    "setMarketplaceSettings(address)": "176ab440",
    "setNetworkBeneficiary(address)": "3492e5a8",
    "setPayments(address)": "af231a58",
    "setRoyaltyEngine(address)": "21ede032",
    "setSpaceOperatorRegistry(address)": "7f358230",
    "transferOwnership(address)": "f2fde38b",
    "upgradeTo(address)": "3659cfe6",
    "upgradeToAndCall(address,bytes)": "4f1ef286"
  },
  "id": 157
}