{
  "abi": [
    {
      "type": "function",
      "name": "DEFAULT_ADMIN_ROLE",
      "inputs": [],
      "outputs": [
        {
          "name": "",
          "type": "bytes32",
          "internalType": "bytes32"
        }
      ],
      "stateMutability": "view"
    },
    {
      "type": "function",
      "name": "SPACE_OPERATOR_REGISTER_ROLE",
      "inputs": [],
      "outputs": [
        {
          "name": "",
          "type": "bytes32",
          "internalType": "bytes32"
        }
      ],
      "stateMutability": "view"
    },
    {
      "type": "function",
      "name": "batchSetSpaceOperatorApproved",
      "inputs": [
        {
          "name": "_operators",
          "type": "address[]",
          "internalType": "address[]"
        },
        {
          "name": "_approved",
          "type": "bool",
          "internalType": "bool"
        }
      ],
      "outputs": [],
      "stateMutability": "nonpayable"
    },
    {
      "type": "function",
      "name": "getPlatformCommission",
      "inputs": [
        {
          "name": "",
          "type": "address",
          "internalType": "address"
        }
      ],
      "outputs": [
        {
          "name": "",
          "type": "uint8",
          "internalType": "uint8"
        }
      ],
      "stateMutability": "pure"
    },
    {
      "type": "function",
      "name": "getRoleAdmin",
      "inputs": [
        {
          "name": "role",
          "type": "bytes32",
          "internalType": "bytes32"
        }
      ],
      "outputs": [
        {
          "name": "",
          "type": "bytes32",
          "internalType": "bytes32"
        }
      ],
      "stateMutability": "view"
    },
    {
      "type": "function",
      "name": "grantRole",
      "inputs": [
        {
          "name": "role",
          "type": "bytes32",
          "internalType": "bytes32"
        },
        {
          "name": "account",
          "type": "address",
          "internalType": "address"
        }
      ],
      "outputs": [],
      "stateMutability": "nonpayable"
    },
    {
      "type": "function",
      "name": "hasRole",
      "inputs": [
        {
          "name": "role",
          "type": "bytes32",
          "internalType": "bytes32"
        },
        {
          "name": "account",
          "type": "address",
          "internalType": "address"
        }
      ],
      "outputs": [
        {
          "name": "",
          "type": "bool",
          "internalType": "bool"
        }
      ],
      "stateMutability": "view"
    },
    {
      "type": "function",
      "name": "initialize",
      "inputs": [],
      "outputs": [],
      "stateMutability": "nonpayable"
    },
    {
      "type": "function",
      "name": "isApprovedOperator",
      "inputs": [
        {
          "name": "",
          "type": "address",
          "internalType": "address"
        }
      ],
      "outputs": [
        {
          "name": "",
          "type": "bool",
          "internalType": "bool"
        }
      ],
      "stateMutability": "view"
    },
    {
      "type": "function",
      "name": "isApprovedSpaceOperator",
      "inputs": [
        {
          "name": "_operator",
          "type": "address",
          "internalType": "address"
        }
      ],
      "outputs": [
        {
          "name": "",
          "type": "bool",
          "internalType": "bool"
        }
      ],
      "stateMutability": "view"
    },
    {
      "type": "function",
      "name": "renounceRole",
      "inputs": [
        {
          "name": "role",
          "type": "bytes32",
          "internalType": "bytes32"
        },
        {
          "name": "account",
          "type": "address",
          "internalType": "address"
        }
      ],
      "outputs": [],
      "stateMutability": "nonpayable"
    },
    {
      "type": "function",
      "name": "revokeRole",
      "inputs": [
        {
          "name": "role",
          "type": "bytes32",
          "internalType": "bytes32"
        },
        {
          "name": "account",
          "type": "address",
          "internalType": "address"
        }
      ],
      "outputs": [],
      "stateMutability": "nonpayable"
    },
    {
      "type": "function",
      "name": "setPlatformCommission",
      "inputs": [
        {
          "name": "",
          "type": "address",
          "internalType": "address"
        },
        {
          "name": "",
          "type": "uint8",
          "internalType": "uint8"
        }
      ],
      "outputs": [],
      "stateMutability": "nonpayable"
    },
    {
      "type": "function",
      "name": "setSpaceOperatorApproved",
      "inputs": [
        {
          "name": "_operator",
          "type": "address",
          "internalType": "address"
        },
        {
          "name": "_approved",
          "type": "bool",
          "internalType": "bool"
        }
      ],
      "outputs": [],
      "stateMutability": "nonpayable"
    },
    {
      "type": "function",
      "name": "supportsInterface",
      "inputs": [
        {
          "name": "interfaceId",
          "type": "bytes4",
          "internalType": "bytes4"
        }
      ],
      "outputs": [
        {
          "name": "",
          "type": "bool",
          "internalType": "bool"
        }
      ],
      "stateMutability": "view"
    },
    {
      "type": "event",
      "name": "Initialized",
      "inputs": [
        {
          "name": "version",
          "type": "uint8",
          "indexed": false,
          "internalType": "uint8"
        }
      ],
      "anonymous": false
    },
    {
      "type": "event",
      "name": "RoleAdminChanged",
      "inputs": [
        {
          "name": "role",
          "type": "bytes32",
          "indexed": true,
          "internalType": "bytes32"
        },
        {
          "name": "previousAdminRole",
          "type": "bytes32",
          "indexed": true,
          "internalType": "bytes32"
        },
        {
          "name": "newAdminRole",
          "type": "bytes32",
          "indexed": true,
          "internalType": "bytes32"
        }
      ],
      "anonymous": false
    },
    {
      "type": "event",
      "name": "RoleGranted",
      "inputs": [
        {
          "name": "role",
          "type": "bytes32",
          "indexed": true,
          "internalType": "bytes32"
        },
        {
          "name": "account",
          "type": "address",
          "indexed": true,
          "internalType": "address"
        },
        {
          "name": "sender",
          "type": "address",
          "indexed": true,
          "internalType": "address"
        }
      ],
      "anonymous": false
    },
    {
      "type": "event",
      "name": "RoleRevoked",
      "inputs": [
        {
          "name": "role",
          "type": "bytes32",
          "indexed": true,
          "internalType": "bytes32"
        },
        {
          "name": "account",
          "type": "address",
          "indexed": true,
          "internalType": "address"
        },
        {
          "name": "sender",
          "type": "address",
          "indexed": true,
          "internalType": "address"
        }
      ],
      "anonymous": false
    },
    {
      "type": "event",
      "name": "SpaceOperatorApproved",
      "inputs": [
        {
          "name": "_operator",
          "type": "address",
          "indexed": true,
          "internalType": "address"
        },
        {
          "name": "_approver",
          "type": "address",
          "indexed": true,
          "internalType": "address"
        },
        {
          "name": "_approved",
          "type": "bool",
          "indexed": false,
          "internalType": "bool"
        }
      ],
      "anonymous": false
    }
  ],
  "bytecode": {
    "object": "0x6080806040523461001657610cba908161001c8239f35b600080fdfe608060408181526004908136101561001657600080fd5b600092833560e01c90816301ffc9a7146107c3575080630d7fc28014610689578063153875f3146105e35780632260494f146105bd578063248a9ca3146105925780632f2ff15d146104e557806336568abe146104535780635a7d11d3146104155780635dc22eff146104155780636ef90741146103ec5780638129fc1c1461019b5780638c4790121461016f57806391d1485414610128578063a217fddf146101095763d547741f146100c957600080fd5b3461010557806003193601126101055761010291356100fd60016100eb610841565b93838752606560205286200154610857565b610ba3565b80f35b8280fd5b83823461012457816003193601126101245751908152602090f35b5080fd5b5090346101055781600319360112610105578160209360ff92610149610841565b90358252606586528282206001600160a01b039091168252855220549151911615158152f35b838234610124573660031901126101985761018861082b565b5060243560ff8116036101985780f35b80fd5b50903461010557826003193601126101055782549060ff808360081c1615918280936103e0575b80156103ca575b156103705760ff198481166001178755938361035f575b5081865460081c16156103085750848052602092606584528486203387528452818587205416156102c1575b600080516020610c6583398151915291828752606585528587203388528552858720541615610277575b5050610240578280f35b7f7f26b83ff96e1f2b6a682f133852f6798a09c465da95921460cefb38474024989161ff001984541684555160018152a138808280f35b818652606584528486203387528452600185872091825416179055339033907f2f8788117e7eff1d82e926ec794901d17c78024a50270940304540a733656f0d8780a43880610236565b8580526065845284862033875284528486206001828254161790553333877f2f8788117e7eff1d82e926ec794901d17c78024a50270940304540a733656f0d8180a461020c565b608490602086519162461bcd60e51b8352820152602b60248201527f496e697469616c697a61626c653a20636f6e7472616374206973206e6f74206960448201526a6e697469616c697a696e6760a81b6064820152fd5b61ffff1916610101178655386101e0565b608490602086519162461bcd60e51b8352820152602e60248201527f496e697469616c697a61626c653a20636f6e747261637420697320616c72656160448201526d191e481a5b9a5d1a585b1a5e995960921b6064820152fd5b50303b1580156101c957506001828516146101c9565b506001828516106101c2565b83823461012457816003193601126101245760209051600080516020610c658339815191528152f35b8382346101245760203660031901126101245760209160ff9082906001600160a01b0361044061082b565b1681526097855220541690519015158152f35b5091903461012457826003193601126101245761046e610841565b90336001600160a01b0383160361048a57906101029135610ba3565b608490602085519162461bcd60e51b8352820152602f60248201527f416363657373436f6e74726f6c3a2063616e206f6e6c792072656e6f756e636560448201526e103937b632b9903337b91039b2b63360891b6064820152fd5b5090346101055781600319360112610105573590610501610841565b90828452606560205261051960018286200154610857565b828452606560209081528185206001600160a01b039093168086529290528084205460ff1615610547578380f35b82845260656020528084208285526020528320600160ff1982541617905533917f2f8788117e7eff1d82e926ec794901d17c78024a50270940304540a733656f0d8480a43880808380f35b5090346101055760203660031901126101055781602093600192358152606585522001549051908152f35b838234610124576020366003190112610124576020906105db61082b565b505160058152f35b8382346101245780600319360112610124576105fd61082b565b90610606610817565b91600080516020610c658339815191528452606560205281842033855260205260ff828520541615610685576001600160a01b03168084526097602052818420805460ff191660ff85151516179055905191151582527f73c6c46c16b828775364ea7d6e753e704d29e8d5d57372459c0f0e699b5cdc1960203393a380f35b8380fd5b50903461010557816003193601126101055767ffffffffffffffff9080358281116107bf57366023820112156107bf57808201359283116107bf57602493848201918536918660051b0101116107bb576106e4939193610817565b80151592875b8181106106f5578880f35b600080516020610c658339815191528952602060658152848a20338b52815260ff858b205416156107b7576001600160a01b038061073c61073785878d610c40565b610c50565b168b526097825261075b85878d209060ff801983541691151516179055565b61076961073784868c610c40565b167f73c6c46c16b828775364ea7d6e753e704d29e8d5d57372459c0f0e699b5cdc198651928884523393a360001981146107a5576001016106ea565b634e487b7160e01b8952601186528789fd5b8980fd5b8580fd5b8480fd5b84908434610105576020366003190112610105573563ffffffff60e01b81168091036101055760209250637965db0b60e01b8114908115610806575b5015158152f35b6301ffc9a760e01b149050836107ff565b60243590811515820361082657565b600080fd5b600435906001600160a01b038216820361082657565b602435906001600160a01b038216820361082657565b600081815260209160658352604092838320338452815260ff8484205416156108805750505050565b835167ffffffffffffffff939092336060850186811186821017610b6c578752602a85528385019187368437855115610b585760308353855191600192831015610b44576078602188015360295b838111610ada5750610a04578751906080820182811089821117610ac657895260428252858201926060368537825115610ab257603084538251811015610ab257607860218401536041905b808211610a46575050610a0457916109999493918893606798995196879361096f8886019a7f416363657373436f6e74726f6c3a206163636f756e74200000000000000000008c525180926037880190610b80565b8401917001034b99036b4b9b9b4b733903937b6329607d1b60378401525180936048840190610b80565b0103602881018552601f199687910116840196848810908811176109f05750926109e760449593601f938880975262461bcd60e51b8752600487015251809281602488015287870190610b80565b01168101030190fd5b634e487b7160e01b81526041600452602490fd5b60648589519062461bcd60e51b825280600483015260248201527f537472696e67733a20686578206c656e67746820696e73756666696369656e746044820152fd5b9091600f81166010811015610a9e576f181899199a1a9b1b9c1cb0b131b232b360811b901a610a758486610c19565b5360041c918015610a8a57600019019061091a565b634e487b7160e01b87526011600452602487fd5b634e487b7160e01b88526032600452602488fd5b634e487b7160e01b86526032600452602486fd5b634e487b7160e01b86526041600452602486fd5b90600f81166010811015610b30576f181899199a1a9b1b9c1cb0b131b232b360811b901a610b08838a610c19565b5360041c908015610b1c57600019016108ce565b634e487b7160e01b86526011600452602486fd5b634e487b7160e01b87526032600452602487fd5b634e487b7160e01b85526032600452602485fd5b634e487b7160e01b84526032600452602484fd5b634e487b7160e01b84526041600452602484fd5b60005b838110610b935750506000910152565b8181015183820152602001610b83565b906000918083526065602052604083209160018060a01b03169182845260205260ff604084205416610bd457505050565b8083526065602052604083208284526020526040832060ff1981541690557ff6391f5c32d9c69d2a47ea670b442974b53935d1edc7fd64eb21e047a839171b339380a4565b908151811015610c2a570160200190565b634e487b7160e01b600052603260045260246000fd5b9190811015610c2a5760051b0190565b356001600160a01b0381168103610826579056fe57527c1536e7f33d6b842314905b9307508ae79cb438bc0e1a0315e90266ae7fa264697066735822122092a4f83324a38ba9e8f513b4dc5bbd1ba34e3ee023915589a5d5110d348e6ef764736f6c63430008120033",
    "linkReferences": {}
  },
  "methodIdentifiers": {
    "DEFAULT_ADMIN_ROLE()": "a217fddf",
    "SPACE_OPERATOR_REGISTER_ROLE()": "6ef90741",
    "batchSetSpaceOperatorApproved(address[],bool)": "0d7fc280",
    "getPlatformCommission(address)": "2260494f",
    "getRoleAdmin(bytes32)": "248a9ca3",
    "grantRole(bytes32,address)": "2f2ff15d",
    "hasRole(bytes32,address)": "91d14854",
    "initialize()": "8129fc1c",
    "isApprovedOperator(address)": "5a7d11d3",
    "isApprovedSpaceOperator(address)": "5dc22eff",
    "renounceRole(bytes32,address)": "36568abe",
    "revokeRole(bytes32,address)": "d547741f",
    "setPlatformCommission(address,uint8)": "8c479012",
    "setSpaceOperatorApproved(address,bool)": "153875f3",
    "supportsInterface(bytes4)": "01ffc9a7"
  },
  "id": 171
}