{
  "abi": [
    {
      "type": "function",
      "name": "COLDIE_AUCTION",
      "inputs": [],
      "outputs": [
        {
          "name": "",
          "type": "bytes32",
          "internalType": "bytes32"
        }
      ],
      "stateMutability": "view"
    },
    {
      "type": "function",
      "name": "NO_AUCTION",
      "inputs": [],
      "outputs": [
        {
          "name": "",
          "type": "bytes32",
          "internalType": "bytes32"
        }
      ],
      "stateMutability": "view"
    },
    {
      "type": "function",
      "name": "SCHEDULED_AUCTION",
      "inputs": [],
      "outputs": [
        {
          "name": "",
          "type": "bytes32",
          "internalType": "bytes32"
        }
      ],
      "stateMutability": "view"
    },
    {
      "type": "function",
      "name": "approvedTokenRegistry",
      "inputs": [],
      "outputs": [
        {
          "name": "",
          "type": "address",
          "internalType": "contract IApprovedTokenRegistry"
        }
      ],
      "stateMutability": "view"
    },
    {
      "type": "function",
      "name": "auctionBids",
      "inputs": [
        {
          "name": "",
          "type": "address",
          "internalType": "address"
        },
        {
          "name": "",
          "type": "uint256",
          "internalType": "uint256"
        }
      ],
      "outputs": [
        {
          "name": "bidder",
          "type": "address",
          "internalType": "address payable"
        },
        {
          "name": "currencyAddress",
          "type": "address",
          "internalType": "address"
        },
        {
          "name": "amount",
          "type": "uint256",
          "internalType": "uint256"
        },
        {
          "name": "marketplaceFee",
          "type": "uint8",
          "internalType": "uint8"
        }
      ],
      "stateMutability": "view"
    },
    {
      "type": "function",
      "name": "auctionLengthExtension",
      "inputs": [],
      "outputs": [
        {
          "name": "",
          "type": "uint256",
          "internalType": "uint256"
        }
      ],
      "stateMutability": "view"
    },
    {
      "type": "function",
      "name": "marketplaceSettings",
      "inputs": [],
      "outputs": [
        {
          "name": "",
          "type": "address",
          "internalType": "contract IMarketplaceSettings"
        }
      ],
      "stateMutability": "view"
    },
    {
      "type": "function",
      "name": "maxAuctionLength",
      "inputs": [],
      "outputs": [
        {
          "name": "",
          "type": "uint256",
          "internalType": "uint256"
        }
      ],
      "stateMutability": "view"
    },
    {
      "type": "function",
      "name": "minimumBidIncreasePercentage",
      "inputs": [],
      "outputs": [
        {
          "name": "",
          "type": "uint8",
          "internalType": "uint8"
        }
      ],
      "stateMutability": "view"
    },
    {
      "type": "function",
      "name": "networkBeneficiary",
      "inputs": [],
      "outputs": [
        {
          "name": "",
          "type": "address",
          "internalType": "address"
        }
      ],
      "stateMutability": "view"
    },
    {
      "type": "function",
      "name": "offerCancelationDelay",
      "inputs": [],
      "outputs": [
        {
          "name": "",
          "type": "uint256",
          "internalType": "uint256"
        }
      ],
      "stateMutability": "view"
    },
    {
      "type": "function",
      "name": "payments",
      "inputs": [],
      "outputs": [
        {
          "name": "",
          "type": "address",
          "internalType": "contract IPayments"
        }
      ],
      "stateMutability": "view"
    },
    {
      "type": "function",
      "name": "royaltyEngine",
      "inputs": [],
      "outputs": [
        {
          "name": "",
          "type": "address",
          "internalType": "contract IRoyaltyEngineV1"
        }
      ],
      "stateMutability": "view"
    },
    {
      "type": "function",
      "name": "royaltyRegistry",
      "inputs": [],
      "outputs": [
        {
          "name": "",
          "type": "address",
          "internalType": "contract IRareRoyaltyRegistry"
        }
      ],
      "stateMutability": "view"
    },
    {
      "type": "function",
      "name": "spaceOperatorRegistry",
      "inputs": [],
      "outputs": [
        {
          "name": "",
          "type": "address",
          "internalType": "contract ISpaceOperatorRegistry"
        }
      ],
      "stateMutability": "view"
    },
    {
      "type": "function",
      "name": "stakingRegistry",
      "inputs": [],
      "outputs": [
        {
          "name": "",
          "type": "address",
          "internalType": "address"
        }
      ],
      "stateMutability": "view"
    },
    {
      "type": "function",
      "name": "superRareAuctionHouse",
      "inputs": [],
      "outputs": [
        {
          "name": "",
          "type": "address",
          "internalType": "address"
        }
      ],
      "stateMutability": "view"
    },
    {
      "type": "function",
      "name": "superRareMarketplace",
      "inputs": [],
      "outputs": [
        {
          "name": "",
          "type": "address",
          "internalType": "address"
        }
      ],
      "stateMutability": "view"
    },
    {
      "type": "function",
      "name": "tokenAuctions",
      "inputs": [
        {
          "name": "",
          "type": "address",
          "internalType": "address"
        },
        {
          "name": "",
          "type": "uint256",
          "internalType": "uint256"
        }
      ],
      "outputs": [
        {
          "name": "auctionCreator",
          "type": "address",
          "internalType": "address payable"
        },
        {
          "name": "creationBlock",
          "type": "uint256",
          "internalType": "uint256"
        },
        {
          "name": "startingTime",
          "type": "uint256",
          "internalType": "uint256"
        },
        {
          "name": "lengthOfAuction",
          "type": "uint256",
          "internalType": "uint256"
        },
        {
          "name": "currencyAddress",
          "type": "address",
          "internalType": "address"
        },
        {
          "name": "minimumBid",
          "type": "uint256",
          "internalType": "uint256"
        },
        {
          "name": "auctionType",
          "type": "bytes32",
          "internalType": "bytes32"
        }
      ],
      "stateMutability": "view"
    },
    {
      "type": "function",
      "name": "tokenCurrentOffers",
      "inputs": [
        {
          "name": "",
          "type": "address",
          "internalType": "address"
        },
        {
          "name": "",
          "type": "uint256",
          "internalType": "uint256"
        },
        {
          "name": "",
          "type": "address",
          "internalType": "address"
        }
      ],
      "outputs": [
        {
          "name": "buyer",
          "type": "address",
          "internalType": "address payable"
        },
        {
          "name": "amount",
          "type": "uint256",
          "internalType": "uint256"
        },
        {
          "name": "timestamp",
          "type": "uint256",
          "internalType": "uint256"
        },
        {
          "name": "marketplaceFee",
          "type": "uint8",
          "internalType": "uint8"
        },
        {
          "name": "convertible",
          "type": "bool",
          "internalType": "bool"
        }
      ],
      "stateMutability": "view"
    },
    {
      "type": "function",
      "name": "tokenSalePrices",
      "inputs": [
        {
          "name": "",
          "type": "address",
          "internalType": "address"
        },
        {
          "name": "",
          "type": "uint256",
          "internalType": "uint256"
        },
        {
          "name": "",
          "type": "address",
          "internalType": "address"
        }
      ],
      "outputs": [
        {
          "name": "seller",
          "type": "address",
          "internalType": "address payable"
        },
        {
          "name": "currencyAddress",
          "type": "address",
          "internalType": "address"
        },
        {
          "name": "amount",
          "type": "uint256",
          "internalType": "uint256"
        }
      ],
      "stateMutability": "view"
    },
    {
      "type": "event",
      "name": "AcceptOffer",
      "inputs": [
        {
          "name": "_originContract",
          "type": "address",
          "indexed": true,
          "internalType": "address"
        },
        {
          "name": "_bidder",
          "type": "address",
          "indexed": true,
          "internalType": "address"
        },
        {
          "name": "_seller",
          "type": "address",
          "indexed": true,
          "internalType": "address"
        },
        {
          "name": "_currencyAddress",
          "type": "address",
          "indexed": false,
          "internalType": "address"
        },
        {
          "name": "_amount",
          "type": "uint256",
          "indexed": false,
          "internalType": "uint256"
        },
        {
          "name": "_tokenId",
          "type": "uint256",
          "indexed": false,
          "internalType": "uint256"
        },
        {
          "name": "_splitAddresses",
          "type": "address[]",
          "indexed": false,
          "internalType": "address payable[]"
        },
        {
          "name": "_splitRatios",
          "type": "uint8[]",
          "indexed": false,
          "internalType": "uint8[]"
        }
      ],
      "anonymous": false
    },
    {
      "type": "event",
      "name": "AuctionBid",
      "inputs": [
        {
          "name": "_contractAddress",
          "type": "address",
          "indexed": true,
          "internalType": "address"
        },
        {
          "name": "_bidder",
          "type": "address",
          "indexed": true,
          "internalType": "address"
        },
        {
          "name": "_tokenId",
          "type": "uint256",
          "indexed": true,
          "internalType": "uint256"
        },
        {
          "name": "_currencyAddress",
          "type": "address",
          "indexed": false,
          "internalType": "address"
        },
        {
          "name": "_amount",
          "type": "uint256",
          "indexed": false,
          "internalType": "uint256"
        },
        {
          "name": "_startedAuction",
          "type": "bool",
          "indexed": false,
          "internalType": "bool"
        },
        {
          "name": "_newAuctionLength",
          "type": "uint256",
          "indexed": false,
          "internalType": "uint256"
        },
        {
          "name": "_previousBidder",
          "type": "address",
          "indexed": false,
          "internalType": "address"
        }
      ],
      "anonymous": false
    },
    {
      "type": "event",
      "name": "AuctionSettled",
      "inputs": [
        {
          "name": "_contractAddress",
          "type": "address",
          "indexed": true,
          "internalType": "address"
        },
        {
          "name": "_bidder",
          "type": "address",
          "indexed": true,
          "internalType": "address"
        },
        {
          "name": "_seller",
          "type": "address",
          "indexed": false,
          "internalType": "address"
        },
        {
          "name": "_tokenId",
          "type": "uint256",
          "indexed": true,
          "internalType": "uint256"
        },
        {
          "name": "_currencyAddress",
          "type": "address",
          "indexed": false,
          "internalType": "address"
        },
        {
          "name": "_amount",
          "type": "uint256",
          "indexed": false,
          "internalType": "uint256"
        }
      ],
      "anonymous": false
    },
    {
      "type": "event",
      "name": "CancelAuction",
      "inputs": [
        {
          "name": "_contractAddress",
          "type": "address",
          "indexed": true,
          "internalType": "address"
        },
        {
          "name": "_tokenId",
          "type": "uint256",
          "indexed": true,
          "internalType": "uint256"
        },
        {
          "name": "_auctionCreator",
          "type": "address",
          "indexed": true,
          "internalType": "address"
        }
      ],
      "anonymous": false
    },
    {
      "type": "event",
      "name": "CancelOffer",
      "inputs": [
        {
          "name": "_originContract",
          "type": "address",
          "indexed": true,
          "internalType": "address"
        },
        {
          "name": "_bidder",
          "type": "address",
          "indexed": true,
          "internalType": "address"
        },
        {
          "name": "_currencyAddress",
          "type": "address",
          "indexed": true,
          "internalType": "address"
        },
        {
          "name": "_amount",
          "type": "uint256",
          "indexed": false,
          "internalType": "uint256"
        },
        {
          "name": "_tokenId",
          "type": "uint256",
          "indexed": false,
          "internalType": "uint256"
        }
      ],
      "anonymous": false
    },
    {
      "type": "event",
      "name": "NewAuction",
      "inputs": [
        {
          "name": "_contractAddress",
          "type": "address",
          "indexed": true,
          "internalType": "address"
        },
        {
          "name": "_tokenId",
          "type": "uint256",
          "indexed": true,
          "internalType": "uint256"
        },
        {
          "name": "_auctionCreator",
          "type": "address",
          "indexed": true,
          "internalType": "address"
        },
        {
          "name": "_currencyAddress",
          "type": "address",
          "indexed": false,
          "internalType": "address"
        },
        {
          "name": "_startingTime",
          "type": "uint256",
          "indexed": false,
          "internalType": "uint256"
        },
        {
          "name": "_minimumBid",
          "type": "uint256",
          "indexed": false,
          "internalType": "uint256"
        },
        {
          "name": "_lengthOfAuction",
          "type": "uint256",
          "indexed": false,
          "internalType": "uint256"
        }
      ],
      "anonymous": false
    },
    {
      "type": "event",
      "name": "OfferPlaced",
      "inputs": [
        {
          "name": "_originContract",
          "type": "address",
          "indexed": true,
          "internalType": "address"
        },
        {
          "name": "_bidder",
          "type": "address",
          "indexed": true,
          "internalType": "address"
        },
        {
          "name": "_currencyAddress",
          "type": "address",
          "indexed": true,
          "internalType": "address"
        },
        {
          "name": "_amount",
          "type": "uint256",
          "indexed": false,
          "internalType": "uint256"
        },
        {
          "name": "_tokenId",
          "type": "uint256",
          "indexed": false,
          "internalType": "uint256"
        },
        {
          "name": "_convertible",
          "type": "bool",
          "indexed": false,
          "internalType": "bool"
        }
      ],
      "anonymous": false
    },
    {
      "type": "event",
      "name": "SetSalePrice",
      "inputs": [
        {
          "name": "_originContract",
          "type": "address",
          "indexed": true,
          "internalType": "address"
        },
        {
          "name": "_currencyAddress",
          "type": "address",
          "indexed": true,
          "internalType": "address"
        },
        {
          "name": "_target",
          "type": "address",
          "indexed": false,
          "internalType": "address"
        },
        {
          "name": "_amount",
          "type": "uint256",
          "indexed": false,
          "internalType": "uint256"
        },
        {
          "name": "_tokenId",
          "type": "uint256",
          "indexed": false,
          "internalType": "uint256"
        },
        {
          "name": "_splitRecipients",
          "type": "address[]",
          "indexed": false,
          "internalType": "address payable[]"
        },
        {
          "name": "_splitRatios",
          "type": "uint8[]",
          "indexed": false,
          "internalType": "uint8[]"
        }
      ],
      "anonymous": false
    },
    {
      "type": "event",
      "name": "Sold",
      "inputs": [
        {
          "name": "_originContract",
          "type": "address",
          "indexed": true,
          "internalType": "address"
        },
        {
          "name": "_buyer",
          "type": "address",
          "indexed": true,
          "internalType": "address"
        },
        {
          "name": "_seller",
          "type": "address",
          "indexed": true,
          "internalType": "address"
        },
        {
          "name": "_currencyAddress",
          "type": "address",
          "indexed": false,
          "internalType": "address"
        },
        {
          "name": "_amount",
          "type": "uint256",
          "indexed": false,
          "internalType": "uint256"
        },
        {
          "name": "_tokenId",
          "type": "uint256",
          "indexed": false,
          "internalType": "uint256"
        }
      ],
      "anonymous": false
    }
  ],
  "bytecode": {
    "object": "0x60808060405234610016576105d5908161001c8239f35b600080fdfe60806040818152600436101561001457600080fd5b600091823560e01c9081629d9aa91461052b575080630141c590146105035780630a5c4ed5146104e55780630bcba09d146104bd5780630e519ef91461049f578063155a56b1146104855780631a2ac30f14610426578063299a0e1e146103bb5780632c419053146103445780633bc3d9be1461031c5780634c94c90c146102f45780636240cd1c146102cc5780636b534ed0146102a45780636fe9f44c14610280578063a11b071214610258578063a6d23e1014610230578063b23afc2614610202578063ba50b632146101db578063c47c35c114610154578063c90b8714146101295763daa264991461010857600080fd5b34610125578160031936011261012557602090600b549051908152f35b5080fd5b5034610125578160031936011261012557516d21a7a62224a2afa0aaa1aa24a7a760911b8152602090f35b503461012557806003193601126101255760e0916001600160a01b039082908261017c610550565b168152600f60205281812060243582526020522081815416926001820154926002830154600384015491600485015416926006600586015495015495815197885260208801528601526060850152608084015260a083015260c0820152f35b5034610125578160031936011261012557905490516001600160a01b039091168152602090f35b5034610125578160031936011261012557517029a1a422a22aa622a22fa0aaa1aa24a7a760791b8152602090f35b503461012557816003193601126101255760075490516001600160a01b039091168152602090f35b503461012557816003193601126101255760015490516001600160a01b039091168152602090f35b503461012557816003193601126101255760209060ff60095460a01c169051908152f35b503461012557816003193601126101255760095490516001600160a01b039091168152602090f35b503461012557816003193601126101255760065490516001600160a01b039091168152602090f35b503461012557816003193601126101255760025490516001600160a01b039091168152602090f35b503461012557816003193601126101255760045490516001600160a01b039091168152602090f35b5034610125579060ff8260a09361035a3661056b565b90600180899894981b038097168352600e6020528383209083526020528583832091168252602052209283541692600181015491600360028301549201549281519586526020860152840152818116606084015260081c1615156080820152f35b50346101255780600319360112610125576080916001600160a01b0391908190836103e4610550565b168152601060205281812060243582526020522082815416926001820154169160ff600360028401549301541692815194855260208501528301526060820152f35b503461012557908160609261043a3661056b565b9060018060a09794971b038096168352600d60205283832090835260205284838320911682526020522090600283835416936001840154169201549181519384526020840152820152f35b503461012557816003193601126101255751908152602090f35b5034610125578160031936011261012557602090600a549051908152f35b503461012557816003193601126101255760055490516001600160a01b039091168152602090f35b5034610125578160031936011261012557602090600c549051908152f35b503461012557816003193601126101255760035490516001600160a01b039091168152602090f35b8390346101255781600319360112610125576008546001600160a01b03168152602090f35b600435906001600160a01b038216820361056657565b600080fd5b6060906003190112610566576001600160a01b0360043581811681036105665791602435916044359081168103610566579056fea2646970667358221220f3dc74df39bf2eb2b74186e022ca81a100531f80536394658eef5de91502a78164736f6c63430008120033",
    "linkReferences": {}
  },
  "methodIdentifiers": {
    "COLDIE_AUCTION()": "c90b8714",
    "NO_AUCTION()": "155a56b1",
    "SCHEDULED_AUCTION()": "b23afc26",
    "approvedTokenRegistry()": "6240cd1c",
    "auctionBids(address,uint256)": "299a0e1e",
    "auctionLengthExtension()": "daa26499",
    "marketplaceSettings()": "ba50b632",
    "maxAuctionLength()": "0e519ef9",
    "minimumBidIncreasePercentage()": "6fe9f44c",
    "networkBeneficiary()": "6b534ed0",
    "offerCancelationDelay()": "0a5c4ed5",
    "payments()": "a6d23e10",
    "royaltyEngine()": "4c94c90c",
    "royaltyRegistry()": "a11b0712",
    "spaceOperatorRegistry()": "0bcba09d",
    "stakingRegistry()": "009d9aa9",
    "superRareAuctionHouse()": "3bc3d9be",
    "superRareMarketplace()": "0141c590",
    "tokenAuctions(address,uint256)": "c47c35c1",
    "tokenCurrentOffers(address,uint256,address)": "2c419053",
    "tokenSalePrices(address,uint256,address)": "1a2ac30f"
  },
  "id": 152
}