{
  "abi": [
    {
      "type": "receive",
      "stateMutability": "payable"
    },
    {
      "type": "function",
      "name": "initiailize",
      "inputs": [
        {
          "name": "_splitAddrs",
          "type": "address[]",
          "internalType": "address[]"
        },
        {
          "name": "_splitRatios",
          "type": "uint256[]",
          "internalType": "uint256[]"
        }
      ],
      "outputs": [],
      "stateMutability": "nonpayable"
    },
    {
      "type": "function",
      "name": "owner",
      "inputs": [],
      "outputs": [
        {
          "name": "",
          "type": "address",
          "internalType": "address"
        }
      ],
      "stateMutability": "view"
    },
    {
      "type": "function",
      "name": "proxiableUUID",
      "inputs": [],
      "outputs": [
        {
          "name": "",
          "type": "bytes32",
          "internalType": "bytes32"
        }
      ],
      "stateMutability": "view"
    },
    {
      "type": "function",
      "name": "renounceOwnership",
      "inputs": [],
      "outputs": [],
      "stateMutability": "nonpayable"
    },
    {
      "type": "function",
      "name": "splitAddrs",
      "inputs": [
        {
          "name": "",
          "type": "uint256",
          "internalType": "uint256"
        }
      ],
      "outputs": [
        {
          "name": "",
          "type": "address",
          "internalType": "address"
        }
      ],
      "stateMutability": "view"
    },
    {
      "type": "function",
      "name": "splitRatios",
      "inputs": [
        {
          "name": "",
          "type": "uint256",
          "internalType": "uint256"
        }
      ],
      "outputs": [
        {
          "name": "",
          "type": "uint256",
          "internalType": "uint256"
        }
      ],
      "stateMutability": "view"
    },
    {
      "type": "function",
      "name": "transferOwnership",
      "inputs": [
        {
          "name": "newOwner",
          "type": "address",
          "internalType": "address"
        }
      ],
      "outputs": [],
      "stateMutability": "nonpayable"
    },
    {
      "type": "function",
      "name": "upgradeTo",
      "inputs": [
        {
          "name": "newImplementation",
          "type": "address",
          "internalType": "address"
        }
      ],
      "outputs": [],
      "stateMutability": "nonpayable"
    },
    {
      "type": "function",
      "name": "upgradeToAndCall",
      "inputs": [
        {
          "name": "newImplementation",
          "type": "address",
          "internalType": "address"
        },
        {
          "name": "data",
          "type": "bytes",
          "internalType": "bytes"
        }
      ],
      "outputs": [],
      "stateMutability": "payable"
    },
    {
      "type": "event",
      "name": "AdminChanged",
      "inputs": [
        {
          "name": "previousAdmin",
          "type": "address",
          "indexed": false,
          "internalType": "address"
        },
        {
          "name": "newAdmin",
          "type": "address",
          "indexed": false,
          "internalType": "address"
        }
      ],
      "anonymous": false
    },
    {
      "type": "event",
      "name": "BeaconUpgraded",
      "inputs": [
        {
          "name": "beacon",
          "type": "address",
          "indexed": true,
          "internalType": "address"
        }
      ],
      "anonymous": false
    },
    {
      "type": "event",
      "name": "Initialized",
      "inputs": [
        {
          "name": "version",
          "type": "uint8",
          "indexed": false,
          "internalType": "uint8"
        }
      ],
      "anonymous": false
    },
    {
      "type": "event",
      "name": "OwnershipTransferred",
      "inputs": [
        {
          "name": "previousOwner",
          "type": "address",
          "indexed": true,
          "internalType": "address"
        },
        {
          "name": "newOwner",
          "type": "address",
          "indexed": true,
          "internalType": "address"
        }
      ],
      "anonymous": false
    },
    {
      "type": "event",
      "name": "Upgraded",
      "inputs": [
        {
          "name": "implementation",
          "type": "address",
          "indexed": true,
          "internalType": "address"
        }
      ],
      "anonymous": false
    }
  ],
  "bytecode": {
    "object": "0x60a0806040523461003157306080526110df9081610037823960805181818161069f015281816107c70152610a4d0152f35b600080fdfe6040608081526004803610156100e1575b361561001b57600080fd5b34159160005b60c9548110156100df5761003481610cac565b9054600391821b1c9081340291348304148617156100ca576000806127108194829461005f88610c5f565b9054939092049291901b1c6001600160a01b03165af161007d610f49565b50156100915761008c9061104d565b610021565b815162461bcd60e51b815260208185015260136024820152721cd95b99081b9bdd081cdd58d8d95cdcd99d5b606a1b6044820152606490fd5b601185634e487b7160e01b6000525260246000fd5b005b6000803560e01c80631f9f20c914610c1d5780633659cfe614610a265780634f1ef2861461074c57806352d1902d1461068b5780636d819363146102e7578063715018a61461028a5780637ab0d1e81461024d5780638da5cb5b146102205763f2fde38b146101505750610010565b91903461021c57602036600319011261021c5761016b610ce3565b90610174610d9f565b6001600160a01b039182169283156101ca575050609754826bffffffffffffffffffffffff60a01b821617609755167f8be0079c531659141344cd1fd0a4f28419497f9722a3daafe3b4186f6b6457e08380a380f35b906020608492519162461bcd60e51b8352820152602660248201527f4f776e61626c653a206e6577206f776e657220697320746865207a65726f206160448201526564647265737360d01b6064820152fd5b8280fd5b50823461024957816003193601126102495760975490516001600160a01b039091168152602090f35b5080fd5b5091903461021c57602036600319011261021c57359160ca548310156102875750610279602092610cac565b91905490519160031b1c8152f35b80fd5b50346102875780600319360112610287576102a3610d9f565b609780546001600160a01b0319811690915581906001600160a01b03167f8be0079c531659141344cd1fd0a4f28419497f9722a3daafe3b4186f6b6457e08280a380f35b50913461021c578060031936011261021c5767ffffffffffffffff918035838111610687576103199036908301610d6e565b919060248035868111610683576103339036908501610d6e565b93909288549760ff8960081c161596878098610676575b801561065f575b1561060657600199888b60ff198316178d556105f5575b508681036105c1578a805b88821061058f57612710915003610559578181116105475768010000000000000000928382116105355760c9548260c9558083106104ff575b508b905b8282106104b75750505085116104a557841161049457505060ca548260ca5580831061045e575b5060ca865284865b83811061042b57505050506103f2578280f35b825461ff0019168355519081527f7f26b83ff96e1f2b6a682f133852f6798a09c465da95921460cefb384740249890602090a138808280f35b60208335930192817f42d72674974f694b5f5159593243114d38a5c39c89d6b62fee061ff523240ee101550185906103df565b61048e90837f42d72674974f694b5f5159593243114d38a5c39c89d6b62fee061ff523240ee19182019101611072565b386103d7565b634e487b7160e01b88526041905286fd5b50634e487b7160e01b88526041905286fd5b8035916001600160a01b03831683036104fb5760208d920192817f66be4f155c5ef2ebd3772b228f2f00681e4ed5826cdb3b1943cc11ad15ad1d28015501906103b0565b8d80fd5b61052f90837f66be4f155c5ef2ebd3772b228f2f00681e4ed5826cdb3b1943cc11ad15ad1d289182019101611072565b386103ac565b634e487b7160e01b8c5260418552858cfd5b634e487b7160e01b8b5260418452848bfd5b885162461bcd60e51b8152602081860152601181870152706e6f7420656e6f75676820726174696f7360781b6044820152606490fd5b8160051b88013581018091116105af576105a9909161104d565b90610373565b634e487b7160e01b8d5260118652868dfd5b885162461bcd60e51b8152602081860152600f818701526e0dcdee840e6c2daca40d8cadccee8d608b1b6044820152606490fd5b61ffff1916610101178b5538610368565b885162461bcd60e51b8152602081860152602e818701527f496e697469616c697a61626c653a20636f6e747261637420697320616c72656160448201526d191e481a5b9a5d1a585b1a5e995960921b6064820152608490fd5b50303b1580156103515750600160ff8b1614610351565b50600160ff8b161061034a565b8780fd5b8480fd5b5034610287578060031936011261028757507f00000000000000000000000000000000000000000000000000000000000000006001600160a01b031630036106e4576020825160008051602061108a8339815191528152f35b6020608492519162461bcd60e51b8352820152603860248201527f555550535570677261646561626c653a206d757374206e6f742062652063616c60448201527f6c6564207468726f7567682064656c656761746563616c6c00000000000000006064820152fd5b50918060031936011261021c57610761610ce3565b906024359067ffffffffffffffff82116106875736602383011215610687578184013561078d81610d52565b9061079a83519283610d30565b8082528660209485840192366024828401011161021c578060248893018537840101526001600160a01b037f00000000000000000000000000000000000000000000000000000000000000008116906107f530831415610df7565b61081260008051602061108a833981519152928284541614610e58565b61081a610d9f565b7f4910fdfa16fed3260ed0e7147f7cc6da11a60208b5b9406d12a635614ffd91435460ff1615610857575050505050506108549150610eb9565b80f35b8693949596169085516352d1902d60e01b815287818a81865afa8a91816109f3575b506108d857865162461bcd60e51b8152808a01899052602e60248201527f45524331393637557067726164653a206e657720696d706c656d656e7461746960448201526d6f6e206973206e6f74205555505360901b6064820152608490fd5b979192939594970361099e5750908692916108f285610eb9565b7fbc7cd75a20ee27fd9adebab32041f755214dbc6bffa90cc0225b39da2e5c2d3b8480a2855115801590610996575b61092f575b50505050505080f35b61098a95660819985a5b195960ca1b837f416464726573733a206c6f772d6c6576656c2064656c65676174652063616c6c8695519861096d8a610cfe565b60278a528901528701525190845af4610984610f49565b91610f79565b50388080838180610926565b506001610921565b835162461bcd60e51b8152908101869052602960248201527f45524331393637557067726164653a20756e737570706f727465642070726f786044820152681a58589b195555525160ba1b6064820152608490fd5b9091508881813d8311610a1f575b610a0b8183610d30565b81010312610a1b57519038610879565b8a80fd5b503d610a01565b50913461021c57602080600319360112610c1957610a42610ce3565b916001600160a01b037f0000000000000000000000000000000000000000000000000000000000000000811690610a7b30831415610df7565b610a9860008051602061108a833981519152928284541614610e58565b610aa0610d9f565b8251918483019183831067ffffffffffffffff841117610c06578285528884527f4910fdfa16fed3260ed0e7147f7cc6da11a60208b5b9406d12a635614ffd91435460ff1615610afa575050505050506108549150610eb9565b8693949596169085516352d1902d60e01b815287818a81865afa8a9181610bd7575b50610b7b57865162461bcd60e51b8152808a01899052602e60248201527f45524331393637557067726164653a206e657720696d706c656d656e7461746960448201526d6f6e206973206e6f74205555505360901b6064820152608490fd5b979192939594970361099e575090869291610b9585610eb9565b7fbc7cd75a20ee27fd9adebab32041f755214dbc6bffa90cc0225b39da2e5c2d3b8480a2855115801590610bd05761092f5750505050505080f35b5082610921565b9091508881813d8311610bff575b610bef8183610d30565b81010312610a1b57519038610b1c565b503d610be5565b634e487b7160e01b895260418852602489fd5b8380fd5b5091903461021c57602036600319011261021c57359160c9548310156102875750610c49602092610c5f565b905491519160018060a01b039160031b1c168152f35b60c954811015610c965760c96000527f66be4f155c5ef2ebd3772b228f2f00681e4ed5826cdb3b1943cc11ad15ad1d280190600090565b634e487b7160e01b600052603260045260246000fd5b60ca54811015610c965760ca6000527f42d72674974f694b5f5159593243114d38a5c39c89d6b62fee061ff523240ee10190600090565b600435906001600160a01b0382168203610cf957565b600080fd5b6060810190811067ffffffffffffffff821117610d1a57604052565b634e487b7160e01b600052604160045260246000fd5b90601f8019910116810190811067ffffffffffffffff821117610d1a57604052565b67ffffffffffffffff8111610d1a57601f01601f191660200190565b9181601f84011215610cf95782359167ffffffffffffffff8311610cf9576020808501948460051b010111610cf957565b6097546001600160a01b03163303610db357565b606460405162461bcd60e51b815260206004820152602060248201527f4f776e61626c653a2063616c6c6572206973206e6f7420746865206f776e65726044820152fd5b15610dfe57565b60405162461bcd60e51b815260206004820152602c60248201527f46756e6374696f6e206d7573742062652063616c6c6564207468726f7567682060448201526b19195b1959d85d1958d85b1b60a21b6064820152608490fd5b15610e5f57565b60405162461bcd60e51b815260206004820152602c60248201527f46756e6374696f6e206d7573742062652063616c6c6564207468726f7567682060448201526b6163746976652070726f787960a01b6064820152608490fd5b803b15610eee5760008051602061108a83398151915280546001600160a01b0319166001600160a01b03909216919091179055565b60405162461bcd60e51b815260206004820152602d60248201527f455243313936373a206e657720696d706c656d656e746174696f6e206973206e60448201526c1bdd08184818dbdb9d1c9858dd609a1b6064820152608490fd5b3d15610f74573d90610f5a82610d52565b91610f686040519384610d30565b82523d6000602084013e565b606090565b91929015610fdb5750815115610f8d575090565b3b15610f965790565b60405162461bcd60e51b815260206004820152601d60248201527f416464726573733a2063616c6c20746f206e6f6e2d636f6e74726163740000006044820152606490fd5b825190915015610fee5750805190602001fd5b6040519062461bcd60e51b82528160208060048301528251908160248401526000935b828510611034575050604492506000838284010152601f80199101168101030190fd5b8481018201518686016044015293810193859350611011565b600019811461105c5760010190565b634e487b7160e01b600052601160045260246000fd5b81811061107d575050565b6000815560010161107256fe360894a13ba1a3210667c828492db98dca3e2076cc3735a920a3ca505d382bbca2646970667358221220eccfe0d78c3eb2a00476deb081ac67a9724061373d2b22bac886105d9dfc1f6764736f6c63430008120033",
    "linkReferences": {}
  },
  "methodIdentifiers": {
    "initiailize(address[],uint256[])": "6d819363",
    "owner()": "8da5cb5b",
    "proxiableUUID()": "52d1902d",
    "renounceOwnership()": "715018a6",
    "splitAddrs(uint256)": "1f9f20c9",
    "splitRatios(uint256)": "7ab0d1e8",
    "transferOwnership(address)": "f2fde38b",
    "upgradeTo(address)": "3659cfe6",
    "upgradeToAndCall(address,bytes)": "4f1ef286"
  },
  "id": 218
}